{"contracts/ID.sol":{"ID":{"abi":[{"inputs":[{"internalType":"uint256","name":"_secretNum","type":"uint256"}],"stateMutability":"nonpayable","type":"constructor"},{"anonymous":false,"inputs":[{"indexed":false,"internalType":"uint256","name":"userNumber","type":"uint256"},{"indexed":false,"internalType":"bytes32","name":"userId","type":"bytes32"},{"indexed":false,"internalType":"bytes32","name":"userIc","type":"bytes32"},{"indexed":false,"internalType":"string","name":"name","type":"string"},{"indexed":false,"internalType":"uint256","name":"createdTime","type":"uint256"}],"name":"CreateUserInfo","type":"event"},{"anonymous":false,"inputs":[{"indexed":true,"internalType":"address","name":"previousOwner","type":"address"},{"indexed":true,"internalType":"address","name":"newOwner","type":"address"}],"name":"OwnershipTransferred","type":"event"},{"inputs":[{"internalType":"string","name":"name","type":"string"}],"name":"createUserInfo","outputs":[],"stateMutability":"nonpayable","type":"function"},{"inputs":[],"name":"fetchAllUserInfo","outputs":[{"components":[{"internalType":"uint256","name":"userNumber","type":"uint256"},{"internalType":"bytes32","name":"userId","type":"bytes32"},{"internalType":"bytes32","name":"userIc","type":"bytes32"},{"internalType":"string","name":"name","type":"string"},{"internalType":"uint256","name":"createdTime","type":"uint256"}],"internalType":"struct ID.UserInfo[]","name":"","type":"tuple[]"}],"stateMutability":"view","type":"function"},{"inputs":[{"internalType":"bytes32","name":"_userIc","type":"bytes32"}],"name":"fetchUserInfoByIc","outputs":[{"components":[{"internalType":"uint256","name":"userNumber","type":"uint256"},{"internalType":"bytes32","name":"userId","type":"bytes32"},{"internalType":"bytes32","name":"userIc","type":"bytes32"},{"internalType":"string","name":"name","type":"string"},{"internalType":"uint256","name":"createdTime","type":"uint256"}],"internalType":"struct ID.UserInfo","name":"","type":"tuple"}],"stateMutability":"view","type":"function"},{"inputs":[{"internalType":"bytes32","name":"_userId","type":"bytes32"}],"name":"fetchUserInfoById","outputs":[{"components":[{"internalType":"uint256","name":"userNumber","type":"uint256"},{"internalType":"bytes32","name":"userId","type":"bytes32"},{"internalType":"bytes32","name":"userIc","type":"bytes32"},{"internalType":"string","name":"name","type":"string"},{"internalType":"uint256","name":"createdTime","type":"uint256"}],"internalType":"struct ID.UserInfo","name":"","type":"tuple"}],"stateMutability":"view","type":"function"},{"inputs":[],"name":"owner","outputs":[{"internalType":"address","name":"","type":"address"}],"stateMutability":"view","type":"function"},{"inputs":[],"name":"renounceOwnership","outputs":[],"stateMutability":"nonpayable","type":"function"},{"inputs":[{"internalType":"address","name":"newOwner","type":"address"}],"name":"transferOwnership","outputs":[],"stateMutability":"nonpayable","type":"function"}],"evm":{"bytecode":{"linkReferences":{},"object":"60806040523480156200001157600080fd5b50604051620016d8380380620016d8833981810160405281019062000037919062000171565b620000576200004b6200006560201b60201c565b6200006d60201b60201c565b8060028190555050620001a3565b600033905090565b60008060009054906101000a900473ffffffffffffffffffffffffffffffffffffffff169050816000806101000a81548173ffffffffffffffffffffffffffffffffffffffff021916908373ffffffffffffffffffffffffffffffffffffffff1602179055508173ffffffffffffffffffffffffffffffffffffffff168173ffffffffffffffffffffffffffffffffffffffff167f8be0079c531659141344cd1fd0a4f28419497f9722a3daafe3b4186f6b6457e060405160405180910390a35050565b600080fd5b6000819050919050565b6200014b8162000136565b81146200015757600080fd5b50565b6000815190506200016b8162000140565b92915050565b6000602082840312156200018a576200018962000131565b5b60006200019a848285016200015a565b91505092915050565b61152580620001b36000396000f3fe608060405234801561001057600080fd5b506004361061007d5760003560e01c80639eae7c3d1161005b5780639eae7c3d146100c8578063ec11f8a4146100f8578063f2fde38b14610114578063fa980a9c146101305761007d565b806320adf28514610082578063715018a6146100a05780638da5cb5b146100aa575b600080fd5b61008a610160565b6040516100979190610b1c565b60405180910390f35b6100a86102ff565b005b6100b2610313565b6040516100bf9190610b7f565b60405180910390f35b6100e260048036038101906100dd9190610bda565b61033c565b6040516100ef9190610c7d565b60405180910390f35b610112600480360381019061010d9190610dd4565b610477565b005b61012e60048036038101906101299190610e49565b6105c1565b005b61014a60048036038101906101459190610bda565b610644565b6040516101579190610c7d565b60405180910390f35b606061016a61077f565b600061017660016107fd565b905060008167ffffffffffffffff81111561019457610193610ca9565b5b6040519080825280602002602001820160405280156101cd57816020015b6101ba6108ed565b8152602001906001900390816101b25790505b50905060005b828110156102f6576000600360006001846101ee9190610ea5565b81526020019081526020016000209050806040518060a001604052908160008201548152602001600182015481526020016002820154815260200160038201805461023890610f08565b80601f016020809104026020016040519081016040528092919081815260200182805461026490610f08565b80156102b15780601f10610286576101008083540402835291602001916102b1565b820191906000526020600020905b81548152906001019060200180831161029457829003601f168201915b505050505081526020016004820154815250508383815181106102d7576102d6610f39565b5b60200260200101819052505080806102ee90610f68565b9150506101d3565b50809250505090565b61030761077f565b610311600061080b565b565b60008060009054906101000a900473ffffffffffffffffffffffffffffffffffffffff16905090565b6103446108ed565b600061035060016107fd565b905060005b8181101561046f576000600360006001846103709190610ea5565b815260200190815260200160002090508481600201540361045b57806040518060a00160405290816000820154815260200160018201548152602001600282015481526020016003820180546103c590610f08565b80601f01602080910402602001604051908101604052809291908181526020018280546103f190610f08565b801561043e5780601f106104135761010080835404028352916020019161043e565b820191906000526020600020905b81548152906001019060200180831161042157829003601f168201915b505050505081526020016004820154815250509350505050610472565b50808061046790610f68565b915050610355565b50505b919050565b61047f61077f565b61048960016108cf565b600061049560016107fd565b9050600042905060006002548383866040516020016104b7949392919061100d565b604051602081830303815290604052805190602001209050600081856002546040516020016104e893929190611078565b6040516020818303038152906040528051906020012090506040518060a001604052808581526020018381526020018281526020018681526020018481525060036000868152602001908152602001600020600082015181600001556020820151816001015560408201518160020155606082015181600301908161056d919061125d565b50608082015181600401559050507fb2846300ba318345304f9bc87cafbed0ae60ced049743f54aa8e3cbe16aadd0f84838388876040516105b2959493929190611397565b60405180910390a15050505050565b6105c961077f565b600073ffffffffffffffffffffffffffffffffffffffff168173ffffffffffffffffffffffffffffffffffffffff1603610638576040517f08c379a000000000000000000000000000000000000000000000000000000000815260040161062f90611463565b60405180910390fd5b6106418161080b565b50565b61064c6108ed565b600061065860016107fd565b905060005b81811015610777576000600360006001846106789190610ea5565b815260200190815260200160002090508481600101540361076357806040518060a00160405290816000820154815260200160018201548152602001600282015481526020016003820180546106cd90610f08565b80601f01602080910402602001604051908101604052809291908181526020018280546106f990610f08565b80156107465780601f1061071b57610100808354040283529160200191610746565b820191906000526020600020905b81548152906001019060200180831161072957829003601f168201915b50505050508152602001600482015481525050935050505061077a565b50808061076f90610f68565b91505061065d565b50505b919050565b6107876108e5565b73ffffffffffffffffffffffffffffffffffffffff166107a5610313565b73ffffffffffffffffffffffffffffffffffffffff16146107fb576040517f08c379a00000000000000000000000000000000000000000000000000000000081526004016107f2906114cf565b60405180910390fd5b565b600081600001549050919050565b60008060009054906101000a900473ffffffffffffffffffffffffffffffffffffffff169050816000806101000a81548173ffffffffffffffffffffffffffffffffffffffff021916908373ffffffffffffffffffffffffffffffffffffffff1602179055508173ffffffffffffffffffffffffffffffffffffffff168173ffffffffffffffffffffffffffffffffffffffff167f8be0079c531659141344cd1fd0a4f28419497f9722a3daafe3b4186f6b6457e060405160405180910390a35050565b6001816000016000828254019250508190555050565b600033905090565b6040518060a0016040528060008152602001600080191681526020016000801916815260200160608152602001600081525090565b600081519050919050565b600082825260208201905092915050565b6000819050602082019050919050565b6000819050919050565b6109618161094e565b82525050565b6000819050919050565b61097a81610967565b82525050565b600081519050919050565b600082825260208201905092915050565b60005b838110156109ba57808201518184015260208101905061099f565b60008484015250505050565b6000601f19601f8301169050919050565b60006109e282610980565b6109ec818561098b565b93506109fc81856020860161099c565b610a05816109c6565b840191505092915050565b600060a083016000830151610a286000860182610958565b506020830151610a3b6020860182610971565b506040830151610a4e6040860182610971565b5060608301518482036060860152610a6682826109d7565b9150506080830151610a7b6080860182610958565b508091505092915050565b6000610a928383610a10565b905092915050565b6000602082019050919050565b6000610ab282610922565b610abc818561092d565b935083602082028501610ace8561093e565b8060005b85811015610b0a5784840389528151610aeb8582610a86565b9450610af683610a9a565b925060208a01995050600181019050610ad2565b50829750879550505050505092915050565b60006020820190508181036000830152610b368184610aa7565b905092915050565b600073ffffffffffffffffffffffffffffffffffffffff82169050919050565b6000610b6982610b3e565b9050919050565b610b7981610b5e565b82525050565b6000602082019050610b946000830184610b70565b92915050565b6000604051905090565b600080fd5b600080fd5b610bb781610967565b8114610bc257600080fd5b50565b600081359050610bd481610bae565b92915050565b600060208284031215610bf057610bef610ba4565b5b6000610bfe84828501610bc5565b91505092915050565b600060a083016000830151610c1f6000860182610958565b506020830151610c326020860182610971565b506040830151610c456040860182610971565b5060608301518482036060860152610c5d82826109d7565b9150506080830151610c726080860182610958565b508091505092915050565b60006020820190508181036000830152610c978184610c07565b905092915050565b600080fd5b600080fd5b7f4e487b7100000000000000000000000000000000000000000000000000000000600052604160045260246000fd5b610ce1826109c6565b810181811067ffffffffffffffff82111715610d0057610cff610ca9565b5b80604052505050565b6000610d13610b9a565b9050610d1f8282610cd8565b919050565b600067ffffffffffffffff821115610d3f57610d3e610ca9565b5b610d48826109c6565b9050602081019050919050565b82818337600083830152505050565b6000610d77610d7284610d24565b610d09565b905082815260208101848484011115610d9357610d92610ca4565b5b610d9e848285610d55565b509392505050565b600082601f830112610dbb57610dba610c9f565b5b8135610dcb848260208601610d64565b91505092915050565b600060208284031215610dea57610de9610ba4565b5b600082013567ffffffffffffffff811115610e0857610e07610ba9565b5b610e1484828501610da6565b91505092915050565b610e2681610b5e565b8114610e3157600080fd5b50565b600081359050610e4381610e1d565b92915050565b600060208284031215610e5f57610e5e610ba4565b5b6000610e6d84828501610e34565b91505092915050565b7f4e487b7100000000000000000000000000000000000000000000000000000000600052601160045260246000fd5b6000610eb08261094e565b9150610ebb8361094e565b9250828201905080821115610ed357610ed2610e76565b5b92915050565b7f4e487b7100000000000000000000000000000000000000000000000000000000600052602260045260246000fd5b60006002820490506001821680610f2057607f821691505b602082108103610f3357610f32610ed9565b5b50919050565b7f4e487b7100000000000000000000000000000000000000000000000000000000600052603260045260246000fd5b6000610f738261094e565b91507fffffffffffffffffffffffffffffffffffffffffffffffffffffffffffffffff8203610fa557610fa4610e76565b5b600182019050919050565b6000819050919050565b610fcb610fc68261094e565b610fb0565b82525050565b600081905092915050565b6000610fe782610980565b610ff18185610fd1565b935061100181856020860161099c565b80840191505092915050565b60006110198287610fba565b6020820191506110298286610fba565b6020820191506110398285610fba565b6020820191506110498284610fdc565b915081905095945050505050565b6000819050919050565b61107261106d82610967565b611057565b82525050565b60006110848286611061565b6020820191506110948285610fdc565b91506110a08284610fba565b602082019150819050949350505050565b60008190508160005260206000209050919050565b60006020601f8301049050919050565b600082821b905092915050565b6000600883026111137fffffffffffffffffffffffffffffffffffffffffffffffffffffffffffffffff826110d6565b61111d86836110d6565b95508019841693508086168417925050509392505050565b6000819050919050565b600061115a6111556111508461094e565b611135565b61094e565b9050919050565b6000819050919050565b6111748361113f565b61118861118082611161565b8484546110e3565b825550505050565b600090565b61119d611190565b6111a881848461116b565b505050565b5b818110156111cc576111c1600082611195565b6001810190506111ae565b5050565b601f821115611211576111e2816110b1565b6111eb846110c6565b810160208510156111fa578190505b61120e611206856110c6565b8301826111ad565b50505b505050565b600082821c905092915050565b600061123460001984600802611216565b1980831691505092915050565b600061124d8383611223565b9150826002028217905092915050565b61126682610980565b67ffffffffffffffff81111561127f5761127e610ca9565b5b6112898254610f08565b6112948282856111d0565b600060209050601f8311600181146112c757600084156112b5578287015190505b6112bf8582611241565b865550611327565b601f1984166112d5866110b1565b60005b828110156112fd578489015182556001820191506020850194506020810190506112d8565b8683101561131a5784890151611316601f891682611223565b8355505b6001600288020188555050505b505050505050565b6113388161094e565b82525050565b61134781610967565b82525050565b600082825260208201905092915050565b600061136982610980565b611373818561134d565b935061138381856020860161099c565b61138c816109c6565b840191505092915050565b600060a0820190506113ac600083018861132f565b6113b9602083018761133e565b6113c6604083018661133e565b81810360608301526113d8818561135e565b90506113e7608083018461132f565b9695505050505050565b7f4f776e61626c653a206e6577206f776e657220697320746865207a65726f206160008201527f6464726573730000000000000000000000000000000000000000000000000000602082015250565b600061144d60268361134d565b9150611458826113f1565b604082019050919050565b6000602082019050818103600083015261147c81611440565b9050919050565b7f4f776e61626c653a2063616c6c6572206973206e6f7420746865206f776e6572600082015250565b60006114b960208361134d565b91506114c482611483565b602082019050919050565b600060208201905081810360008301526114e8816114ac565b905091905056fea264697066735822122059a06423bb0b17df5fe52b1f3cd4322b5e149b3aec8f2a952046f70b8b3ac7de64736f6c63430008110033","opcodes":"PUSH1 0x80 PUSH1 0x40 MSTORE CALLVALUE DUP1 ISZERO PUSH3 0x11 JUMPI PUSH1 0x0 DUP1 REVERT JUMPDEST POP PUSH1 0x40 MLOAD PUSH3 0x16D8 CODESIZE SUB DUP1 PUSH3 0x16D8 DUP4 CODECOPY DUP2 DUP2 ADD PUSH1 0x40 MSTORE DUP2 ADD SWAP1 PUSH3 0x37 SWAP2 SWAP1 PUSH3 0x171 JUMP JUMPDEST PUSH3 0x57 PUSH3 0x4B PUSH3 0x65 PUSH1 0x20 SHL PUSH1 0x20 SHR JUMP JUMPDEST PUSH3 0x6D PUSH1 0x20 SHL PUSH1 0x20 SHR JUMP JUMPDEST DUP1 PUSH1 0x2 DUP2 SWAP1 SSTORE POP POP PUSH3 0x1A3 JUMP JUMPDEST PUSH1 0x0 CALLER SWAP1 POP SWAP1 JUMP JUMPDEST PUSH1 0x0 DUP1 PUSH1 0x0 SWAP1 SLOAD SWAP1 PUSH2 0x100 EXP SWAP1 DIV PUSH20 0xFFFFFFFFFFFFFFFFFFFFFFFFFFFFFFFFFFFFFFFF AND SWAP1 POP DUP2 PUSH1 0x0 DUP1 PUSH2 0x100 EXP DUP2 SLOAD DUP2 PUSH20 0xFFFFFFFFFFFFFFFFFFFFFFFFFFFFFFFFFFFFFFFF MUL NOT AND SWAP1 DUP4 PUSH20 0xFFFFFFFFFFFFFFFFFFFFFFFFFFFFFFFFFFFFFFFF AND MUL OR SWAP1 SSTORE POP DUP2 PUSH20 0xFFFFFFFFFFFFFFFFFFFFFFFFFFFFFFFFFFFFFFFF AND DUP2 PUSH20 0xFFFFFFFFFFFFFFFFFFFFFFFFFFFFFFFFFFFFFFFF AND PUSH32 0x8BE0079C531659141344CD1FD0A4F28419497F9722A3DAAFE3B4186F6B6457E0 PUSH1 0x40 MLOAD PUSH1 0x40 MLOAD DUP1 SWAP2 SUB SWAP1 LOG3 POP POP JUMP JUMPDEST PUSH1 0x0 DUP1 REVERT JUMPDEST PUSH1 0x0 DUP2 SWAP1 POP SWAP2 SWAP1 POP JUMP JUMPDEST PUSH3 0x14B DUP2 PUSH3 0x136 JUMP JUMPDEST DUP2 EQ PUSH3 0x157 JUMPI PUSH1 0x0 DUP1 REVERT JUMPDEST POP JUMP JUMPDEST PUSH1 0x0 DUP2 MLOAD SWAP1 POP PUSH3 0x16B DUP2 PUSH3 0x140 JUMP JUMPDEST SWAP3 SWAP2 POP POP JUMP JUMPDEST PUSH1 0x0 PUSH1 0x20 DUP3 DUP5 SUB SLT ISZERO PUSH3 0x18A JUMPI PUSH3 0x189 PUSH3 0x131 JUMP JUMPDEST JUMPDEST PUSH1 0x0 PUSH3 0x19A DUP5 DUP3 DUP6 ADD PUSH3 0x15A JUMP JUMPDEST SWAP2 POP POP SWAP3 SWAP2 POP POP JUMP JUMPDEST PUSH2 0x1525 DUP1 PUSH3 0x1B3 PUSH1 0x0 CODECOPY PUSH1 0x0 RETURN INVALID PUSH1 0x80 PUSH1 0x40 MSTORE CALLVALUE DUP1 ISZERO PUSH2 0x10 JUMPI PUSH1 0x0 DUP1 REVERT JUMPDEST POP PUSH1 0x4 CALLDATASIZE LT PUSH2 0x7D JUMPI PUSH1 0x0 CALLDATALOAD PUSH1 0xE0 SHR DUP1 PUSH4 0x9EAE7C3D GT PUSH2 0x5B JUMPI DUP1 PUSH4 0x9EAE7C3D EQ PUSH2 0xC8 JUMPI DUP1 PUSH4 0xEC11F8A4 EQ PUSH2 0xF8 JUMPI DUP1 PUSH4 0xF2FDE38B EQ PUSH2 0x114 JUMPI DUP1 PUSH4 0xFA980A9C EQ PUSH2 0x130 JUMPI PUSH2 0x7D JUMP JUMPDEST DUP1 PUSH4 0x20ADF285 EQ PUSH2 0x82 JUMPI DUP1 PUSH4 0x715018A6 EQ PUSH2 0xA0 JUMPI DUP1 PUSH4 0x8DA5CB5B EQ PUSH2 0xAA JUMPI JUMPDEST PUSH1 0x0 DUP1 REVERT JUMPDEST PUSH2 0x8A PUSH2 0x160 JUMP JUMPDEST PUSH1 0x40 MLOAD PUSH2 0x97 SWAP2 SWAP1 PUSH2 0xB1C JUMP JUMPDEST PUSH1 0x40 MLOAD DUP1 SWAP2 SUB SWAP1 RETURN JUMPDEST PUSH2 0xA8 PUSH2 0x2FF JUMP JUMPDEST STOP JUMPDEST PUSH2 0xB2 PUSH2 0x313 JUMP JUMPDEST PUSH1 0x40 MLOAD PUSH2 0xBF SWAP2 SWAP1 PUSH2 0xB7F JUMP JUMPDEST PUSH1 0x40 MLOAD DUP1 SWAP2 SUB SWAP1 RETURN JUMPDEST PUSH2 0xE2 PUSH1 0x4 DUP1 CALLDATASIZE SUB DUP2 ADD SWAP1 PUSH2 0xDD SWAP2 SWAP1 PUSH2 0xBDA JUMP JUMPDEST PUSH2 0x33C JUMP JUMPDEST PUSH1 0x40 MLOAD PUSH2 0xEF SWAP2 SWAP1 PUSH2 0xC7D JUMP JUMPDEST PUSH1 0x40 MLOAD DUP1 SWAP2 SUB SWAP1 RETURN JUMPDEST PUSH2 0x112 PUSH1 0x4 DUP1 CALLDATASIZE SUB DUP2 ADD SWAP1 PUSH2 0x10D SWAP2 SWAP1 PUSH2 0xDD4 JUMP JUMPDEST PUSH2 0x477 JUMP JUMPDEST STOP JUMPDEST PUSH2 0x12E PUSH1 0x4 DUP1 CALLDATASIZE SUB DUP2 ADD SWAP1 PUSH2 0x129 SWAP2 SWAP1 PUSH2 0xE49 JUMP JUMPDEST PUSH2 0x5C1 JUMP JUMPDEST STOP JUMPDEST PUSH2 0x14A PUSH1 0x4 DUP1 CALLDATASIZE SUB DUP2 ADD SWAP1 PUSH2 0x145 SWAP2 SWAP1 PUSH2 0xBDA JUMP JUMPDEST PUSH2 0x644 JUMP JUMPDEST PUSH1 0x40 MLOAD PUSH2 0x157 SWAP2 SWAP1 PUSH2 0xC7D JUMP JUMPDEST PUSH1 0x40 MLOAD DUP1 SWAP2 SUB SWAP1 RETURN JUMPDEST PUSH1 0x60 PUSH2 0x16A PUSH2 0x77F JUMP JUMPDEST PUSH1 0x0 PUSH2 0x176 PUSH1 0x1 PUSH2 0x7FD JUMP JUMPDEST SWAP1 POP PUSH1 0x0 DUP2 PUSH8 0xFFFFFFFFFFFFFFFF DUP2 GT ISZERO PUSH2 0x194 JUMPI PUSH2 0x193 PUSH2 0xCA9 JUMP JUMPDEST JUMPDEST PUSH1 0x40 MLOAD SWAP1 DUP1 DUP3 MSTORE DUP1 PUSH1 0x20 MUL PUSH1 0x20 ADD DUP3 ADD PUSH1 0x40 MSTORE DUP1 ISZERO PUSH2 0x1CD JUMPI DUP2 PUSH1 0x20 ADD JUMPDEST PUSH2 0x1BA PUSH2 0x8ED JUMP JUMPDEST DUP2 MSTORE PUSH1 0x20 ADD SWAP1 PUSH1 0x1 SWAP1 SUB SWAP1 DUP2 PUSH2 0x1B2 JUMPI SWAP1 POP JUMPDEST POP SWAP1 POP PUSH1 0x0 JUMPDEST DUP3 DUP2 LT ISZERO PUSH2 0x2F6 JUMPI PUSH1 0x0 PUSH1 0x3 PUSH1 0x0 PUSH1 0x1 DUP5 PUSH2 0x1EE SWAP2 SWAP1 PUSH2 0xEA5 JUMP JUMPDEST DUP2 MSTORE PUSH1 0x20 ADD SWAP1 DUP2 MSTORE PUSH1 0x20 ADD PUSH1 0x0 KECCAK256 SWAP1 POP DUP1 PUSH1 0x40 MLOAD DUP1 PUSH1 0xA0 ADD PUSH1 0x40 MSTORE SWAP1 DUP2 PUSH1 0x0 DUP3 ADD SLOAD DUP2 MSTORE PUSH1 0x20 ADD PUSH1 0x1 DUP3 ADD SLOAD DUP2 MSTORE PUSH1 0x20 ADD PUSH1 0x2 DUP3 ADD SLOAD DUP2 MSTORE PUSH1 0x20 ADD PUSH1 0x3 DUP3 ADD DUP1 SLOAD PUSH2 0x238 SWAP1 PUSH2 0xF08 JUMP JUMPDEST DUP1 PUSH1 0x1F ADD PUSH1 0x20 DUP1 SWAP2 DIV MUL PUSH1 0x20 ADD PUSH1 0x40 MLOAD SWAP1 DUP2 ADD PUSH1 0x40 MSTORE DUP1 SWAP3 SWAP2 SWAP1 DUP2 DUP2 MSTORE PUSH1 0x20 ADD DUP3 DUP1 SLOAD PUSH2 0x264 SWAP1 PUSH2 0xF08 JUMP JUMPDEST DUP1 ISZERO PUSH2 0x2B1 JUMPI DUP1 PUSH1 0x1F LT PUSH2 0x286 JUMPI PUSH2 0x100 DUP1 DUP4 SLOAD DIV MUL DUP4 MSTORE SWAP2 PUSH1 0x20 ADD SWAP2 PUSH2 0x2B1 JUMP JUMPDEST DUP3 ADD SWAP2 SWAP1 PUSH1 0x0 MSTORE PUSH1 0x20 PUSH1 0x0 KECCAK256 SWAP1 JUMPDEST DUP2 SLOAD DUP2 MSTORE SWAP1 PUSH1 0x1 ADD SWAP1 PUSH1 0x20 ADD DUP1 DUP4 GT PUSH2 0x294 JUMPI DUP3 SWAP1 SUB PUSH1 0x1F AND DUP3 ADD SWAP2 JUMPDEST POP POP POP POP POP DUP2 MSTORE PUSH1 0x20 ADD PUSH1 0x4 DUP3 ADD SLOAD DUP2 MSTORE POP POP DUP4 DUP4 DUP2 MLOAD DUP2 LT PUSH2 0x2D7 JUMPI PUSH2 0x2D6 PUSH2 0xF39 JUMP JUMPDEST JUMPDEST PUSH1 0x20 MUL PUSH1 0x20 ADD ADD DUP2 SWAP1 MSTORE POP POP DUP1 DUP1 PUSH2 0x2EE SWAP1 PUSH2 0xF68 JUMP JUMPDEST SWAP2 POP POP PUSH2 0x1D3 JUMP JUMPDEST POP DUP1 SWAP3 POP POP POP SWAP1 JUMP JUMPDEST PUSH2 0x307 PUSH2 0x77F JUMP JUMPDEST PUSH2 0x311 PUSH1 0x0 PUSH2 0x80B JUMP JUMPDEST JUMP JUMPDEST PUSH1 0x0 DUP1 PUSH1 0x0 SWAP1 SLOAD SWAP1 PUSH2 0x100 EXP SWAP1 DIV PUSH20 0xFFFFFFFFFFFFFFFFFFFFFFFFFFFFFFFFFFFFFFFF AND SWAP1 POP SWAP1 JUMP JUMPDEST PUSH2 0x344 PUSH2 0x8ED JUMP JUMPDEST PUSH1 0x0 PUSH2 0x350 PUSH1 0x1 PUSH2 0x7FD JUMP JUMPDEST SWAP1 POP PUSH1 0x0 JUMPDEST DUP2 DUP2 LT ISZERO PUSH2 0x46F JUMPI PUSH1 0x0 PUSH1 0x3 PUSH1 0x0 PUSH1 0x1 DUP5 PUSH2 0x370 SWAP2 SWAP1 PUSH2 0xEA5 JUMP JUMPDEST DUP2 MSTORE PUSH1 0x20 ADD SWAP1 DUP2 MSTORE PUSH1 0x20 ADD PUSH1 0x0 KECCAK256 SWAP1 POP DUP5 DUP2 PUSH1 0x2 ADD SLOAD SUB PUSH2 0x45B JUMPI DUP1 PUSH1 0x40 MLOAD DUP1 PUSH1 0xA0 ADD PUSH1 0x40 MSTORE SWAP1 DUP2 PUSH1 0x0 DUP3 ADD SLOAD DUP2 MSTORE PUSH1 0x20 ADD PUSH1 0x1 DUP3 ADD SLOAD DUP2 MSTORE PUSH1 0x20 ADD PUSH1 0x2 DUP3 ADD SLOAD DUP2 MSTORE PUSH1 0x20 ADD PUSH1 0x3 DUP3 ADD DUP1 SLOAD PUSH2 0x3C5 SWAP1 PUSH2 0xF08 JUMP JUMPDEST DUP1 PUSH1 0x1F ADD PUSH1 0x20 DUP1 SWAP2 DIV MUL PUSH1 0x20 ADD PUSH1 0x40 MLOAD SWAP1 DUP2 ADD PUSH1 0x40 MSTORE DUP1 SWAP3 SWAP2 SWAP1 DUP2 DUP2 MSTORE PUSH1 0x20 ADD DUP3 DUP1 SLOAD PUSH2 0x3F1 SWAP1 PUSH2 0xF08 JUMP JUMPDEST DUP1 ISZERO PUSH2 0x43E JUMPI DUP1 PUSH1 0x1F LT PUSH2 0x413 JUMPI PUSH2 0x100 DUP1 DUP4 SLOAD DIV MUL DUP4 MSTORE SWAP2 PUSH1 0x20 ADD SWAP2 PUSH2 0x43E JUMP JUMPDEST DUP3 ADD SWAP2 SWAP1 PUSH1 0x0 MSTORE PUSH1 0x20 PUSH1 0x0 KECCAK256 SWAP1 JUMPDEST DUP2 SLOAD DUP2 MSTORE SWAP1 PUSH1 0x1 ADD SWAP1 PUSH1 0x20 ADD DUP1 DUP4 GT PUSH2 0x421 JUMPI DUP3 SWAP1 SUB PUSH1 0x1F AND DUP3 ADD SWAP2 JUMPDEST POP POP POP POP POP DUP2 MSTORE PUSH1 0x20 ADD PUSH1 0x4 DUP3 ADD SLOAD DUP2 MSTORE POP POP SWAP4 POP POP POP POP PUSH2 0x472 JUMP JUMPDEST POP DUP1 DUP1 PUSH2 0x467 SWAP1 PUSH2 0xF68 JUMP JUMPDEST SWAP2 POP POP PUSH2 0x355 JUMP JUMPDEST POP POP JUMPDEST SWAP2 SWAP1 POP JUMP JUMPDEST PUSH2 0x47F PUSH2 0x77F JUMP JUMPDEST PUSH2 0x489 PUSH1 0x1 PUSH2 0x8CF JUMP JUMPDEST PUSH1 0x0 PUSH2 0x495 PUSH1 0x1 PUSH2 0x7FD JUMP JUMPDEST SWAP1 POP PUSH1 0x0 TIMESTAMP SWAP1 POP PUSH1 0x0 PUSH1 0x2 SLOAD DUP4 DUP4 DUP7 PUSH1 0x40 MLOAD PUSH1 0x20 ADD PUSH2 0x4B7 SWAP5 SWAP4 SWAP3 SWAP2 SWAP1 PUSH2 0x100D JUMP JUMPDEST PUSH1 0x40 MLOAD PUSH1 0x20 DUP2 DUP4 SUB SUB DUP2 MSTORE SWAP1 PUSH1 0x40 MSTORE DUP1 MLOAD SWAP1 PUSH1 0x20 ADD KECCAK256 SWAP1 POP PUSH1 0x0 DUP2 DUP6 PUSH1 0x2 SLOAD PUSH1 0x40 MLOAD PUSH1 0x20 ADD PUSH2 0x4E8 SWAP4 SWAP3 SWAP2 SWAP1 PUSH2 0x1078 JUMP JUMPDEST PUSH1 0x40 MLOAD PUSH1 0x20 DUP2 DUP4 SUB SUB DUP2 MSTORE SWAP1 PUSH1 0x40 MSTORE DUP1 MLOAD SWAP1 PUSH1 0x20 ADD KECCAK256 SWAP1 POP PUSH1 0x40 MLOAD DUP1 PUSH1 0xA0 ADD PUSH1 0x40 MSTORE DUP1 DUP6 DUP2 MSTORE PUSH1 0x20 ADD DUP4 DUP2 MSTORE PUSH1 0x20 ADD DUP3 DUP2 MSTORE PUSH1 0x20 ADD DUP7 DUP2 MSTORE PUSH1 0x20 ADD DUP5 DUP2 MSTORE POP PUSH1 0x3 PUSH1 0x0 DUP7 DUP2 MSTORE PUSH1 0x20 ADD SWAP1 DUP2 MSTORE PUSH1 0x20 ADD PUSH1 0x0 KECCAK256 PUSH1 0x0 DUP3 ADD MLOAD DUP2 PUSH1 0x0 ADD SSTORE PUSH1 0x20 DUP3 ADD MLOAD DUP2 PUSH1 0x1 ADD SSTORE PUSH1 0x40 DUP3 ADD MLOAD DUP2 PUSH1 0x2 ADD SSTORE PUSH1 0x60 DUP3 ADD MLOAD DUP2 PUSH1 0x3 ADD SWAP1 DUP2 PUSH2 0x56D SWAP2 SWAP1 PUSH2 0x125D JUMP JUMPDEST POP PUSH1 0x80 DUP3 ADD MLOAD DUP2 PUSH1 0x4 ADD SSTORE SWAP1 POP POP PUSH32 0xB2846300BA318345304F9BC87CAFBED0AE60CED049743F54AA8E3CBE16AADD0F DUP5 DUP4 DUP4 DUP9 DUP8 PUSH1 0x40 MLOAD PUSH2 0x5B2 SWAP6 SWAP5 SWAP4 SWAP3 SWAP2 SWAP1 PUSH2 0x1397 JUMP JUMPDEST PUSH1 0x40 MLOAD DUP1 SWAP2 SUB SWAP1 LOG1 POP POP POP POP POP JUMP JUMPDEST PUSH2 0x5C9 PUSH2 0x77F JUMP JUMPDEST PUSH1 0x0 PUSH20 0xFFFFFFFFFFFFFFFFFFFFFFFFFFFFFFFFFFFFFFFF AND DUP2 PUSH20 0xFFFFFFFFFFFFFFFFFFFFFFFFFFFFFFFFFFFFFFFF AND SUB PUSH2 0x638 JUMPI PUSH1 0x40 MLOAD PUSH32 0x8C379A000000000000000000000000000000000000000000000000000000000 DUP2 MSTORE PUSH1 0x4 ADD PUSH2 0x62F SWAP1 PUSH2 0x1463 JUMP JUMPDEST PUSH1 0x40 MLOAD DUP1 SWAP2 SUB SWAP1 REVERT JUMPDEST PUSH2 0x641 DUP2 PUSH2 0x80B JUMP JUMPDEST POP JUMP JUMPDEST PUSH2 0x64C PUSH2 0x8ED JUMP JUMPDEST PUSH1 0x0 PUSH2 0x658 PUSH1 0x1 PUSH2 0x7FD JUMP JUMPDEST SWAP1 POP PUSH1 0x0 JUMPDEST DUP2 DUP2 LT ISZERO PUSH2 0x777 JUMPI PUSH1 0x0 PUSH1 0x3 PUSH1 0x0 PUSH1 0x1 DUP5 PUSH2 0x678 SWAP2 SWAP1 PUSH2 0xEA5 JUMP JUMPDEST DUP2 MSTORE PUSH1 0x20 ADD SWAP1 DUP2 MSTORE PUSH1 0x20 ADD PUSH1 0x0 KECCAK256 SWAP1 POP DUP5 DUP2 PUSH1 0x1 ADD SLOAD SUB PUSH2 0x763 JUMPI DUP1 PUSH1 0x40 MLOAD DUP1 PUSH1 0xA0 ADD PUSH1 0x40 MSTORE SWAP1 DUP2 PUSH1 0x0 DUP3 ADD SLOAD DUP2 MSTORE PUSH1 0x20 ADD PUSH1 0x1 DUP3 ADD SLOAD DUP2 MSTORE PUSH1 0x20 ADD PUSH1 0x2 DUP3 ADD SLOAD DUP2 MSTORE PUSH1 0x20 ADD PUSH1 0x3 DUP3 ADD DUP1 SLOAD PUSH2 0x6CD SWAP1 PUSH2 0xF08 JUMP JUMPDEST DUP1 PUSH1 0x1F ADD PUSH1 0x20 DUP1 SWAP2 DIV MUL PUSH1 0x20 ADD PUSH1 0x40 MLOAD SWAP1 DUP2 ADD PUSH1 0x40 MSTORE DUP1 SWAP3 SWAP2 SWAP1 DUP2 DUP2 MSTORE PUSH1 0x20 ADD DUP3 DUP1 SLOAD PUSH2 0x6F9 SWAP1 PUSH2 0xF08 JUMP JUMPDEST DUP1 ISZERO PUSH2 0x746 JUMPI DUP1 PUSH1 0x1F LT PUSH2 0x71B JUMPI PUSH2 0x100 DUP1 DUP4 SLOAD DIV MUL DUP4 MSTORE SWAP2 PUSH1 0x20 ADD SWAP2 PUSH2 0x746 JUMP JUMPDEST DUP3 ADD SWAP2 SWAP1 PUSH1 0x0 MSTORE PUSH1 0x20 PUSH1 0x0 KECCAK256 SWAP1 JUMPDEST DUP2 SLOAD DUP2 MSTORE SWAP1 PUSH1 0x1 ADD SWAP1 PUSH1 0x20 ADD DUP1 DUP4 GT PUSH2 0x729 JUMPI DUP3 SWAP1 SUB PUSH1 0x1F AND DUP3 ADD SWAP2 JUMPDEST POP POP POP POP POP DUP2 MSTORE PUSH1 0x20 ADD PUSH1 0x4 DUP3 ADD SLOAD DUP2 MSTORE POP POP SWAP4 POP POP POP POP PUSH2 0x77A JUMP JUMPDEST POP DUP1 DUP1 PUSH2 0x76F SWAP1 PUSH2 0xF68 JUMP JUMPDEST SWAP2 POP POP PUSH2 0x65D JUMP JUMPDEST POP POP JUMPDEST SWAP2 SWAP1 POP JUMP JUMPDEST PUSH2 0x787 PUSH2 0x8E5 JUMP JUMPDEST PUSH20 0xFFFFFFFFFFFFFFFFFFFFFFFFFFFFFFFFFFFFFFFF AND PUSH2 0x7A5 PUSH2 0x313 JUMP JUMPDEST PUSH20 0xFFFFFFFFFFFFFFFFFFFFFFFFFFFFFFFFFFFFFFFF AND EQ PUSH2 0x7FB JUMPI PUSH1 0x40 MLOAD PUSH32 0x8C379A000000000000000000000000000000000000000000000000000000000 DUP2 MSTORE PUSH1 0x4 ADD PUSH2 0x7F2 SWAP1 PUSH2 0x14CF JUMP JUMPDEST PUSH1 0x40 MLOAD DUP1 SWAP2 SUB SWAP1 REVERT JUMPDEST JUMP JUMPDEST PUSH1 0x0 DUP2 PUSH1 0x0 ADD SLOAD SWAP1 POP SWAP2 SWAP1 POP JUMP JUMPDEST PUSH1 0x0 DUP1 PUSH1 0x0 SWAP1 SLOAD SWAP1 PUSH2 0x100 EXP SWAP1 DIV PUSH20 0xFFFFFFFFFFFFFFFFFFFFFFFFFFFFFFFFFFFFFFFF AND SWAP1 POP DUP2 PUSH1 0x0 DUP1 PUSH2 0x100 EXP DUP2 SLOAD DUP2 PUSH20 0xFFFFFFFFFFFFFFFFFFFFFFFFFFFFFFFFFFFFFFFF MUL NOT AND SWAP1 DUP4 PUSH20 0xFFFFFFFFFFFFFFFFFFFFFFFFFFFFFFFFFFFFFFFF AND MUL OR SWAP1 SSTORE POP DUP2 PUSH20 0xFFFFFFFFFFFFFFFFFFFFFFFFFFFFFFFFFFFFFFFF AND DUP2 PUSH20 0xFFFFFFFFFFFFFFFFFFFFFFFFFFFFFFFFFFFFFFFF AND PUSH32 0x8BE0079C531659141344CD1FD0A4F28419497F9722A3DAAFE3B4186F6B6457E0 PUSH1 0x40 MLOAD PUSH1 0x40 MLOAD DUP1 SWAP2 SUB SWAP1 LOG3 POP POP JUMP JUMPDEST PUSH1 0x1 DUP2 PUSH1 0x0 ADD PUSH1 0x0 DUP3 DUP3 SLOAD ADD SWAP3 POP POP DUP2 SWAP1 SSTORE POP POP JUMP JUMPDEST PUSH1 0x0 CALLER SWAP1 POP SWAP1 JUMP JUMPDEST PUSH1 0x40 MLOAD DUP1 PUSH1 0xA0 ADD PUSH1 0x40 MSTORE DUP1 PUSH1 0x0 DUP2 MSTORE PUSH1 0x20 ADD PUSH1 0x0 DUP1 NOT AND DUP2 MSTORE PUSH1 0x20 ADD PUSH1 0x0 DUP1 NOT AND DUP2 MSTORE PUSH1 0x20 ADD PUSH1 0x60 DUP2 MSTORE PUSH1 0x20 ADD PUSH1 0x0 DUP2 MSTORE POP SWAP1 JUMP JUMPDEST PUSH1 0x0 DUP2 MLOAD SWAP1 POP SWAP2 SWAP1 POP JUMP JUMPDEST PUSH1 0x0 DUP3 DUP3 MSTORE PUSH1 0x20 DUP3 ADD SWAP1 POP SWAP3 SWAP2 POP POP JUMP JUMPDEST PUSH1 0x0 DUP2 SWAP1 POP PUSH1 0x20 DUP3 ADD SWAP1 POP SWAP2 SWAP1 POP JUMP JUMPDEST PUSH1 0x0 DUP2 SWAP1 POP SWAP2 SWAP1 POP JUMP JUMPDEST PUSH2 0x961 DUP2 PUSH2 0x94E JUMP JUMPDEST DUP3 MSTORE POP POP JUMP JUMPDEST PUSH1 0x0 DUP2 SWAP1 POP SWAP2 SWAP1 POP JUMP JUMPDEST PUSH2 0x97A DUP2 PUSH2 0x967 JUMP JUMPDEST DUP3 MSTORE POP POP JUMP JUMPDEST PUSH1 0x0 DUP2 MLOAD SWAP1 POP SWAP2 SWAP1 POP JUMP JUMPDEST PUSH1 0x0 DUP3 DUP3 MSTORE PUSH1 0x20 DUP3 ADD SWAP1 POP SWAP3 SWAP2 POP POP JUMP JUMPDEST PUSH1 0x0 JUMPDEST DUP4 DUP2 LT ISZERO PUSH2 0x9BA JUMPI DUP1 DUP3 ADD MLOAD DUP2 DUP5 ADD MSTORE PUSH1 0x20 DUP2 ADD SWAP1 POP PUSH2 0x99F JUMP JUMPDEST PUSH1 0x0 DUP5 DUP5 ADD MSTORE POP POP POP POP JUMP JUMPDEST PUSH1 0x0 PUSH1 0x1F NOT PUSH1 0x1F DUP4 ADD AND SWAP1 POP SWAP2 SWAP1 POP JUMP JUMPDEST PUSH1 0x0 PUSH2 0x9E2 DUP3 PUSH2 0x980 JUMP JUMPDEST PUSH2 0x9EC DUP2 DUP6 PUSH2 0x98B JUMP JUMPDEST SWAP4 POP PUSH2 0x9FC DUP2 DUP6 PUSH1 0x20 DUP7 ADD PUSH2 0x99C JUMP JUMPDEST PUSH2 0xA05 DUP2 PUSH2 0x9C6 JUMP JUMPDEST DUP5 ADD SWAP2 POP POP SWAP3 SWAP2 POP POP JUMP JUMPDEST PUSH1 0x0 PUSH1 0xA0 DUP4 ADD PUSH1 0x0 DUP4 ADD MLOAD PUSH2 0xA28 PUSH1 0x0 DUP7 ADD DUP3 PUSH2 0x958 JUMP JUMPDEST POP PUSH1 0x20 DUP4 ADD MLOAD PUSH2 0xA3B PUSH1 0x20 DUP7 ADD DUP3 PUSH2 0x971 JUMP JUMPDEST POP PUSH1 0x40 DUP4 ADD MLOAD PUSH2 0xA4E PUSH1 0x40 DUP7 ADD DUP3 PUSH2 0x971 JUMP JUMPDEST POP PUSH1 0x60 DUP4 ADD MLOAD DUP5 DUP3 SUB PUSH1 0x60 DUP7 ADD MSTORE PUSH2 0xA66 DUP3 DUP3 PUSH2 0x9D7 JUMP JUMPDEST SWAP2 POP POP PUSH1 0x80 DUP4 ADD MLOAD PUSH2 0xA7B PUSH1 0x80 DUP7 ADD DUP3 PUSH2 0x958 JUMP JUMPDEST POP DUP1 SWAP2 POP POP SWAP3 SWAP2 POP POP JUMP JUMPDEST PUSH1 0x0 PUSH2 0xA92 DUP4 DUP4 PUSH2 0xA10 JUMP JUMPDEST SWAP1 POP SWAP3 SWAP2 POP POP JUMP JUMPDEST PUSH1 0x0 PUSH1 0x20 DUP3 ADD SWAP1 POP SWAP2 SWAP1 POP JUMP JUMPDEST PUSH1 0x0 PUSH2 0xAB2 DUP3 PUSH2 0x922 JUMP JUMPDEST PUSH2 0xABC DUP2 DUP6 PUSH2 0x92D JUMP JUMPDEST SWAP4 POP DUP4 PUSH1 0x20 DUP3 MUL DUP6 ADD PUSH2 0xACE DUP6 PUSH2 0x93E JUMP JUMPDEST DUP1 PUSH1 0x0 JUMPDEST DUP6 DUP2 LT ISZERO PUSH2 0xB0A JUMPI DUP5 DUP5 SUB DUP10 MSTORE DUP2 MLOAD PUSH2 0xAEB DUP6 DUP3 PUSH2 0xA86 JUMP JUMPDEST SWAP5 POP PUSH2 0xAF6 DUP4 PUSH2 0xA9A JUMP JUMPDEST SWAP3 POP PUSH1 0x20 DUP11 ADD SWAP10 POP POP PUSH1 0x1 DUP2 ADD SWAP1 POP PUSH2 0xAD2 JUMP JUMPDEST POP DUP3 SWAP8 POP DUP8 SWAP6 POP POP POP POP POP POP SWAP3 SWAP2 POP POP JUMP JUMPDEST PUSH1 0x0 PUSH1 0x20 DUP3 ADD SWAP1 POP DUP2 DUP2 SUB PUSH1 0x0 DUP4 ADD MSTORE PUSH2 0xB36 DUP2 DUP5 PUSH2 0xAA7 JUMP JUMPDEST SWAP1 POP SWAP3 SWAP2 POP POP JUMP JUMPDEST PUSH1 0x0 PUSH20 0xFFFFFFFFFFFFFFFFFFFFFFFFFFFFFFFFFFFFFFFF DUP3 AND SWAP1 POP SWAP2 SWAP1 POP JUMP JUMPDEST PUSH1 0x0 PUSH2 0xB69 DUP3 PUSH2 0xB3E JUMP JUMPDEST SWAP1 POP SWAP2 SWAP1 POP JUMP JUMPDEST PUSH2 0xB79 DUP2 PUSH2 0xB5E JUMP JUMPDEST DUP3 MSTORE POP POP JUMP JUMPDEST PUSH1 0x0 PUSH1 0x20 DUP3 ADD SWAP1 POP PUSH2 0xB94 PUSH1 0x0 DUP4 ADD DUP5 PUSH2 0xB70 JUMP JUMPDEST SWAP3 SWAP2 POP POP JUMP JUMPDEST PUSH1 0x0 PUSH1 0x40 MLOAD SWAP1 POP SWAP1 JUMP JUMPDEST PUSH1 0x0 DUP1 REVERT JUMPDEST PUSH1 0x0 DUP1 REVERT JUMPDEST PUSH2 0xBB7 DUP2 PUSH2 0x967 JUMP JUMPDEST DUP2 EQ PUSH2 0xBC2 JUMPI PUSH1 0x0 DUP1 REVERT JUMPDEST POP JUMP JUMPDEST PUSH1 0x0 DUP2 CALLDATALOAD SWAP1 POP PUSH2 0xBD4 DUP2 PUSH2 0xBAE JUMP JUMPDEST SWAP3 SWAP2 POP POP JUMP JUMPDEST PUSH1 0x0 PUSH1 0x20 DUP3 DUP5 SUB SLT ISZERO PUSH2 0xBF0 JUMPI PUSH2 0xBEF PUSH2 0xBA4 JUMP JUMPDEST JUMPDEST PUSH1 0x0 PUSH2 0xBFE DUP5 DUP3 DUP6 ADD PUSH2 0xBC5 JUMP JUMPDEST SWAP2 POP POP SWAP3 SWAP2 POP POP JUMP JUMPDEST PUSH1 0x0 PUSH1 0xA0 DUP4 ADD PUSH1 0x0 DUP4 ADD MLOAD PUSH2 0xC1F PUSH1 0x0 DUP7 ADD DUP3 PUSH2 0x958 JUMP JUMPDEST POP PUSH1 0x20 DUP4 ADD MLOAD PUSH2 0xC32 PUSH1 0x20 DUP7 ADD DUP3 PUSH2 0x971 JUMP JUMPDEST POP PUSH1 0x40 DUP4 ADD MLOAD PUSH2 0xC45 PUSH1 0x40 DUP7 ADD DUP3 PUSH2 0x971 JUMP JUMPDEST POP PUSH1 0x60 DUP4 ADD MLOAD DUP5 DUP3 SUB PUSH1 0x60 DUP7 ADD MSTORE PUSH2 0xC5D DUP3 DUP3 PUSH2 0x9D7 JUMP JUMPDEST SWAP2 POP POP PUSH1 0x80 DUP4 ADD MLOAD PUSH2 0xC72 PUSH1 0x80 DUP7 ADD DUP3 PUSH2 0x958 JUMP JUMPDEST POP DUP1 SWAP2 POP POP SWAP3 SWAP2 POP POP JUMP JUMPDEST PUSH1 0x0 PUSH1 0x20 DUP3 ADD SWAP1 POP DUP2 DUP2 SUB PUSH1 0x0 DUP4 ADD MSTORE PUSH2 0xC97 DUP2 DUP5 PUSH2 0xC07 JUMP JUMPDEST SWAP1 POP SWAP3 SWAP2 POP POP JUMP JUMPDEST PUSH1 0x0 DUP1 REVERT JUMPDEST PUSH1 0x0 DUP1 REVERT JUMPDEST PUSH32 0x4E487B7100000000000000000000000000000000000000000000000000000000 PUSH1 0x0 MSTORE PUSH1 0x41 PUSH1 0x4 MSTORE PUSH1 0x24 PUSH1 0x0 REVERT JUMPDEST PUSH2 0xCE1 DUP3 PUSH2 0x9C6 JUMP JUMPDEST DUP2 ADD DUP2 DUP2 LT PUSH8 0xFFFFFFFFFFFFFFFF DUP3 GT OR ISZERO PUSH2 0xD00 JUMPI PUSH2 0xCFF PUSH2 0xCA9 JUMP JUMPDEST JUMPDEST DUP1 PUSH1 0x40 MSTORE POP POP POP JUMP JUMPDEST PUSH1 0x0 PUSH2 0xD13 PUSH2 0xB9A JUMP JUMPDEST SWAP1 POP PUSH2 0xD1F DUP3 DUP3 PUSH2 0xCD8 JUMP JUMPDEST SWAP2 SWAP1 POP JUMP JUMPDEST PUSH1 0x0 PUSH8 0xFFFFFFFFFFFFFFFF DUP3 GT ISZERO PUSH2 0xD3F JUMPI PUSH2 0xD3E PUSH2 0xCA9 JUMP JUMPDEST JUMPDEST PUSH2 0xD48 DUP3 PUSH2 0x9C6 JUMP JUMPDEST SWAP1 POP PUSH1 0x20 DUP2 ADD SWAP1 POP SWAP2 SWAP1 POP JUMP JUMPDEST DUP3 DUP2 DUP4 CALLDATACOPY PUSH1 0x0 DUP4 DUP4 ADD MSTORE POP POP POP JUMP JUMPDEST PUSH1 0x0 PUSH2 0xD77 PUSH2 0xD72 DUP5 PUSH2 0xD24 JUMP JUMPDEST PUSH2 0xD09 JUMP JUMPDEST SWAP1 POP DUP3 DUP2 MSTORE PUSH1 0x20 DUP2 ADD DUP5 DUP5 DUP5 ADD GT ISZERO PUSH2 0xD93 JUMPI PUSH2 0xD92 PUSH2 0xCA4 JUMP JUMPDEST JUMPDEST PUSH2 0xD9E DUP5 DUP3 DUP6 PUSH2 0xD55 JUMP JUMPDEST POP SWAP4 SWAP3 POP POP POP JUMP JUMPDEST PUSH1 0x0 DUP3 PUSH1 0x1F DUP4 ADD SLT PUSH2 0xDBB JUMPI PUSH2 0xDBA PUSH2 0xC9F JUMP JUMPDEST JUMPDEST DUP2 CALLDATALOAD PUSH2 0xDCB DUP5 DUP3 PUSH1 0x20 DUP7 ADD PUSH2 0xD64 JUMP JUMPDEST SWAP2 POP POP SWAP3 SWAP2 POP POP JUMP JUMPDEST PUSH1 0x0 PUSH1 0x20 DUP3 DUP5 SUB SLT ISZERO PUSH2 0xDEA JUMPI PUSH2 0xDE9 PUSH2 0xBA4 JUMP JUMPDEST JUMPDEST PUSH1 0x0 DUP3 ADD CALLDATALOAD PUSH8 0xFFFFFFFFFFFFFFFF DUP2 GT ISZERO PUSH2 0xE08 JUMPI PUSH2 0xE07 PUSH2 0xBA9 JUMP JUMPDEST JUMPDEST PUSH2 0xE14 DUP5 DUP3 DUP6 ADD PUSH2 0xDA6 JUMP JUMPDEST SWAP2 POP POP SWAP3 SWAP2 POP POP JUMP JUMPDEST PUSH2 0xE26 DUP2 PUSH2 0xB5E JUMP JUMPDEST DUP2 EQ PUSH2 0xE31 JUMPI PUSH1 0x0 DUP1 REVERT JUMPDEST POP JUMP JUMPDEST PUSH1 0x0 DUP2 CALLDATALOAD SWAP1 POP PUSH2 0xE43 DUP2 PUSH2 0xE1D JUMP JUMPDEST SWAP3 SWAP2 POP POP JUMP JUMPDEST PUSH1 0x0 PUSH1 0x20 DUP3 DUP5 SUB SLT ISZERO PUSH2 0xE5F JUMPI PUSH2 0xE5E PUSH2 0xBA4 JUMP JUMPDEST JUMPDEST PUSH1 0x0 PUSH2 0xE6D DUP5 DUP3 DUP6 ADD PUSH2 0xE34 JUMP JUMPDEST SWAP2 POP POP SWAP3 SWAP2 POP POP JUMP JUMPDEST PUSH32 0x4E487B7100000000000000000000000000000000000000000000000000000000 PUSH1 0x0 MSTORE PUSH1 0x11 PUSH1 0x4 MSTORE PUSH1 0x24 PUSH1 0x0 REVERT JUMPDEST PUSH1 0x0 PUSH2 0xEB0 DUP3 PUSH2 0x94E JUMP JUMPDEST SWAP2 POP PUSH2 0xEBB DUP4 PUSH2 0x94E JUMP JUMPDEST SWAP3 POP DUP3 DUP3 ADD SWAP1 POP DUP1 DUP3 GT ISZERO PUSH2 0xED3 JUMPI PUSH2 0xED2 PUSH2 0xE76 JUMP JUMPDEST JUMPDEST SWAP3 SWAP2 POP POP JUMP JUMPDEST PUSH32 0x4E487B7100000000000000000000000000000000000000000000000000000000 PUSH1 0x0 MSTORE PUSH1 0x22 PUSH1 0x4 MSTORE PUSH1 0x24 PUSH1 0x0 REVERT JUMPDEST PUSH1 0x0 PUSH1 0x2 DUP3 DIV SWAP1 POP PUSH1 0x1 DUP3 AND DUP1 PUSH2 0xF20 JUMPI PUSH1 0x7F DUP3 AND SWAP2 POP JUMPDEST PUSH1 0x20 DUP3 LT DUP2 SUB PUSH2 0xF33 JUMPI PUSH2 0xF32 PUSH2 0xED9 JUMP JUMPDEST JUMPDEST POP SWAP2 SWAP1 POP JUMP JUMPDEST PUSH32 0x4E487B7100000000000000000000000000000000000000000000000000000000 PUSH1 0x0 MSTORE PUSH1 0x32 PUSH1 0x4 MSTORE PUSH1 0x24 PUSH1 0x0 REVERT JUMPDEST PUSH1 0x0 PUSH2 0xF73 DUP3 PUSH2 0x94E JUMP JUMPDEST SWAP2 POP PUSH32 0xFFFFFFFFFFFFFFFFFFFFFFFFFFFFFFFFFFFFFFFFFFFFFFFFFFFFFFFFFFFFFFFF DUP3 SUB PUSH2 0xFA5 JUMPI PUSH2 0xFA4 PUSH2 0xE76 JUMP JUMPDEST JUMPDEST PUSH1 0x1 DUP3 ADD SWAP1 POP SWAP2 SWAP1 POP JUMP JUMPDEST PUSH1 0x0 DUP2 SWAP1 POP SWAP2 SWAP1 POP JUMP JUMPDEST PUSH2 0xFCB PUSH2 0xFC6 DUP3 PUSH2 0x94E JUMP JUMPDEST PUSH2 0xFB0 JUMP JUMPDEST DUP3 MSTORE POP POP JUMP JUMPDEST PUSH1 0x0 DUP2 SWAP1 POP SWAP3 SWAP2 POP POP JUMP JUMPDEST PUSH1 0x0 PUSH2 0xFE7 DUP3 PUSH2 0x980 JUMP JUMPDEST PUSH2 0xFF1 DUP2 DUP6 PUSH2 0xFD1 JUMP JUMPDEST SWAP4 POP PUSH2 0x1001 DUP2 DUP6 PUSH1 0x20 DUP7 ADD PUSH2 0x99C JUMP JUMPDEST DUP1 DUP5 ADD SWAP2 POP POP SWAP3 SWAP2 POP POP JUMP JUMPDEST PUSH1 0x0 PUSH2 0x1019 DUP3 DUP8 PUSH2 0xFBA JUMP JUMPDEST PUSH1 0x20 DUP3 ADD SWAP2 POP PUSH2 0x1029 DUP3 DUP7 PUSH2 0xFBA JUMP JUMPDEST PUSH1 0x20 DUP3 ADD SWAP2 POP PUSH2 0x1039 DUP3 DUP6 PUSH2 0xFBA JUMP JUMPDEST PUSH1 0x20 DUP3 ADD SWAP2 POP PUSH2 0x1049 DUP3 DUP5 PUSH2 0xFDC JUMP JUMPDEST SWAP2 POP DUP2 SWAP1 POP SWAP6 SWAP5 POP POP POP POP POP JUMP JUMPDEST PUSH1 0x0 DUP2 SWAP1 POP SWAP2 SWAP1 POP JUMP JUMPDEST PUSH2 0x1072 PUSH2 0x106D DUP3 PUSH2 0x967 JUMP JUMPDEST PUSH2 0x1057 JUMP JUMPDEST DUP3 MSTORE POP POP JUMP JUMPDEST PUSH1 0x0 PUSH2 0x1084 DUP3 DUP7 PUSH2 0x1061 JUMP JUMPDEST PUSH1 0x20 DUP3 ADD SWAP2 POP PUSH2 0x1094 DUP3 DUP6 PUSH2 0xFDC JUMP JUMPDEST SWAP2 POP PUSH2 0x10A0 DUP3 DUP5 PUSH2 0xFBA JUMP JUMPDEST PUSH1 0x20 DUP3 ADD SWAP2 POP DUP2 SWAP1 POP SWAP5 SWAP4 POP POP POP POP JUMP JUMPDEST PUSH1 0x0 DUP2 SWAP1 POP DUP2 PUSH1 0x0 MSTORE PUSH1 0x20 PUSH1 0x0 KECCAK256 SWAP1 POP SWAP2 SWAP1 POP JUMP JUMPDEST PUSH1 0x0 PUSH1 0x20 PUSH1 0x1F DUP4 ADD DIV SWAP1 POP SWAP2 SWAP1 POP JUMP JUMPDEST PUSH1 0x0 DUP3 DUP3 SHL SWAP1 POP SWAP3 SWAP2 POP POP JUMP JUMPDEST PUSH1 0x0 PUSH1 0x8 DUP4 MUL PUSH2 0x1113 PUSH32 0xFFFFFFFFFFFFFFFFFFFFFFFFFFFFFFFFFFFFFFFFFFFFFFFFFFFFFFFFFFFFFFFF DUP3 PUSH2 0x10D6 JUMP JUMPDEST PUSH2 0x111D DUP7 DUP4 PUSH2 0x10D6 JUMP JUMPDEST SWAP6 POP DUP1 NOT DUP5 AND SWAP4 POP DUP1 DUP7 AND DUP5 OR SWAP3 POP POP POP SWAP4 SWAP3 POP POP POP JUMP JUMPDEST PUSH1 0x0 DUP2 SWAP1 POP SWAP2 SWAP1 POP JUMP JUMPDEST PUSH1 0x0 PUSH2 0x115A PUSH2 0x1155 PUSH2 0x1150 DUP5 PUSH2 0x94E JUMP JUMPDEST PUSH2 0x1135 JUMP JUMPDEST PUSH2 0x94E JUMP JUMPDEST SWAP1 POP SWAP2 SWAP1 POP JUMP JUMPDEST PUSH1 0x0 DUP2 SWAP1 POP SWAP2 SWAP1 POP JUMP JUMPDEST PUSH2 0x1174 DUP4 PUSH2 0x113F JUMP JUMPDEST PUSH2 0x1188 PUSH2 0x1180 DUP3 PUSH2 0x1161 JUMP JUMPDEST DUP5 DUP5 SLOAD PUSH2 0x10E3 JUMP JUMPDEST DUP3 SSTORE POP POP POP POP JUMP JUMPDEST PUSH1 0x0 SWAP1 JUMP JUMPDEST PUSH2 0x119D PUSH2 0x1190 JUMP JUMPDEST PUSH2 0x11A8 DUP2 DUP5 DUP5 PUSH2 0x116B JUMP JUMPDEST POP POP POP JUMP JUMPDEST JUMPDEST DUP2 DUP2 LT ISZERO PUSH2 0x11CC JUMPI PUSH2 0x11C1 PUSH1 0x0 DUP3 PUSH2 0x1195 JUMP JUMPDEST PUSH1 0x1 DUP2 ADD SWAP1 POP PUSH2 0x11AE JUMP JUMPDEST POP POP JUMP JUMPDEST PUSH1 0x1F DUP3 GT ISZERO PUSH2 0x1211 JUMPI PUSH2 0x11E2 DUP2 PUSH2 0x10B1 JUMP JUMPDEST PUSH2 0x11EB DUP5 PUSH2 0x10C6 JUMP JUMPDEST DUP2 ADD PUSH1 0x20 DUP6 LT ISZERO PUSH2 0x11FA JUMPI DUP2 SWAP1 POP JUMPDEST PUSH2 0x120E PUSH2 0x1206 DUP6 PUSH2 0x10C6 JUMP JUMPDEST DUP4 ADD DUP3 PUSH2 0x11AD JUMP JUMPDEST POP POP JUMPDEST POP POP POP JUMP JUMPDEST PUSH1 0x0 DUP3 DUP3 SHR SWAP1 POP SWAP3 SWAP2 POP POP JUMP JUMPDEST PUSH1 0x0 PUSH2 0x1234 PUSH1 0x0 NOT DUP5 PUSH1 0x8 MUL PUSH2 0x1216 JUMP JUMPDEST NOT DUP1 DUP4 AND SWAP2 POP POP SWAP3 SWAP2 POP POP JUMP JUMPDEST PUSH1 0x0 PUSH2 0x124D DUP4 DUP4 PUSH2 0x1223 JUMP JUMPDEST SWAP2 POP DUP3 PUSH1 0x2 MUL DUP3 OR SWAP1 POP SWAP3 SWAP2 POP POP JUMP JUMPDEST PUSH2 0x1266 DUP3 PUSH2 0x980 JUMP JUMPDEST PUSH8 0xFFFFFFFFFFFFFFFF DUP2 GT ISZERO PUSH2 0x127F JUMPI PUSH2 0x127E PUSH2 0xCA9 JUMP JUMPDEST JUMPDEST PUSH2 0x1289 DUP3 SLOAD PUSH2 0xF08 JUMP JUMPDEST PUSH2 0x1294 DUP3 DUP3 DUP6 PUSH2 0x11D0 JUMP JUMPDEST PUSH1 0x0 PUSH1 0x20 SWAP1 POP PUSH1 0x1F DUP4 GT PUSH1 0x1 DUP2 EQ PUSH2 0x12C7 JUMPI PUSH1 0x0 DUP5 ISZERO PUSH2 0x12B5 JUMPI DUP3 DUP8 ADD MLOAD SWAP1 POP JUMPDEST PUSH2 0x12BF DUP6 DUP3 PUSH2 0x1241 JUMP JUMPDEST DUP7 SSTORE POP PUSH2 0x1327 JUMP JUMPDEST PUSH1 0x1F NOT DUP5 AND PUSH2 0x12D5 DUP7 PUSH2 0x10B1 JUMP JUMPDEST PUSH1 0x0 JUMPDEST DUP3 DUP2 LT ISZERO PUSH2 0x12FD JUMPI DUP5 DUP10 ADD MLOAD DUP3 SSTORE PUSH1 0x1 DUP3 ADD SWAP2 POP PUSH1 0x20 DUP6 ADD SWAP5 POP PUSH1 0x20 DUP2 ADD SWAP1 POP PUSH2 0x12D8 JUMP JUMPDEST DUP7 DUP4 LT ISZERO PUSH2 0x131A JUMPI DUP5 DUP10 ADD MLOAD PUSH2 0x1316 PUSH1 0x1F DUP10 AND DUP3 PUSH2 0x1223 JUMP JUMPDEST DUP4 SSTORE POP JUMPDEST PUSH1 0x1 PUSH1 0x2 DUP9 MUL ADD DUP9 SSTORE POP POP POP JUMPDEST POP POP POP POP POP POP JUMP JUMPDEST PUSH2 0x1338 DUP2 PUSH2 0x94E JUMP JUMPDEST DUP3 MSTORE POP POP JUMP JUMPDEST PUSH2 0x1347 DUP2 PUSH2 0x967 JUMP JUMPDEST DUP3 MSTORE POP POP JUMP JUMPDEST PUSH1 0x0 DUP3 DUP3 MSTORE PUSH1 0x20 DUP3 ADD SWAP1 POP SWAP3 SWAP2 POP POP JUMP JUMPDEST PUSH1 0x0 PUSH2 0x1369 DUP3 PUSH2 0x980 JUMP JUMPDEST PUSH2 0x1373 DUP2 DUP6 PUSH2 0x134D JUMP JUMPDEST SWAP4 POP PUSH2 0x1383 DUP2 DUP6 PUSH1 0x20 DUP7 ADD PUSH2 0x99C JUMP JUMPDEST PUSH2 0x138C DUP2 PUSH2 0x9C6 JUMP JUMPDEST DUP5 ADD SWAP2 POP POP SWAP3 SWAP2 POP POP JUMP JUMPDEST PUSH1 0x0 PUSH1 0xA0 DUP3 ADD SWAP1 POP PUSH2 0x13AC PUSH1 0x0 DUP4 ADD DUP9 PUSH2 0x132F JUMP JUMPDEST PUSH2 0x13B9 PUSH1 0x20 DUP4 ADD DUP8 PUSH2 0x133E JUMP JUMPDEST PUSH2 0x13C6 PUSH1 0x40 DUP4 ADD DUP7 PUSH2 0x133E JUMP JUMPDEST DUP2 DUP2 SUB PUSH1 0x60 DUP4 ADD MSTORE PUSH2 0x13D8 DUP2 DUP6 PUSH2 0x135E JUMP JUMPDEST SWAP1 POP PUSH2 0x13E7 PUSH1 0x80 DUP4 ADD DUP5 PUSH2 0x132F JUMP JUMPDEST SWAP7 SWAP6 POP POP POP POP POP POP JUMP JUMPDEST PUSH32 0x4F776E61626C653A206E6577206F776E657220697320746865207A65726F2061 PUSH1 0x0 DUP3 ADD MSTORE PUSH32 0x6464726573730000000000000000000000000000000000000000000000000000 PUSH1 0x20 DUP3 ADD MSTORE POP JUMP JUMPDEST PUSH1 0x0 PUSH2 0x144D PUSH1 0x26 DUP4 PUSH2 0x134D JUMP JUMPDEST SWAP2 POP PUSH2 0x1458 DUP3 PUSH2 0x13F1 JUMP JUMPDEST PUSH1 0x40 DUP3 ADD SWAP1 POP SWAP2 SWAP1 POP JUMP JUMPDEST PUSH1 0x0 PUSH1 0x20 DUP3 ADD SWAP1 POP DUP2 DUP2 SUB PUSH1 0x0 DUP4 ADD MSTORE PUSH2 0x147C DUP2 PUSH2 0x1440 JUMP JUMPDEST SWAP1 POP SWAP2 SWAP1 POP JUMP JUMPDEST PUSH32 0x4F776E61626C653A2063616C6C6572206973206E6F7420746865206F776E6572 PUSH1 0x0 DUP3 ADD MSTORE POP JUMP JUMPDEST PUSH1 0x0 PUSH2 0x14B9 PUSH1 0x20 DUP4 PUSH2 0x134D JUMP JUMPDEST SWAP2 POP PUSH2 0x14C4 DUP3 PUSH2 0x1483 JUMP JUMPDEST PUSH1 0x20 DUP3 ADD SWAP1 POP SWAP2 SWAP1 POP JUMP JUMPDEST PUSH1 0x0 PUSH1 0x20 DUP3 ADD SWAP1 POP DUP2 DUP2 SUB PUSH1 0x0 DUP4 ADD MSTORE PUSH2 0x14E8 DUP2 PUSH2 0x14AC JUMP JUMPDEST SWAP1 POP SWAP2 SWAP1 POP JUMP INVALID LOG2 PUSH5 0x6970667358 0x22 SLT KECCAK256 MSIZE LOG0 PUSH5 0x23BB0B17DF 0x5F 0xE5 0x2B 0x1F EXTCODECOPY 0xD4 ORIGIN 0x2B 0x5E EQ SWAP12 GASPRICE 0xEC DUP16 0x2A SWAP6 KECCAK256 CHAINID 0xF7 SIGNEXTEND DUP12 GASPRICE 0xC7 0xDE PUSH5 0x736F6C6343 STOP ADDMOD GT STOP CALLER "},"methodIdentifiers":{"createUserInfo(string)":"ec11f8a4","fetchAllUserInfo()":"20adf285","fetchUserInfoByIc(bytes32)":"9eae7c3d","fetchUserInfoById(bytes32)":"fa980a9c","owner()":"8da5cb5b","renounceOwnership()":"715018a6","transferOwnership(address)":"f2fde38b"}}}}}