{
  "_format": "hh-sol-artifact-1",
  "contractName": "ID",
  "sourceName": "contracts/ID.sol",
  "abi": [
    {
      "inputs": [
        {
          "internalType": "uint256",
          "name": "_secretNum",
          "type": "uint256"
        }
      ],
      "stateMutability": "nonpayable",
      "type": "constructor"
    },
    {
      "anonymous": false,
      "inputs": [
        {
          "indexed": false,
          "internalType": "uint256",
          "name": "userNumber",
          "type": "uint256"
        },
        {
          "indexed": false,
          "internalType": "bytes32",
          "name": "userId",
          "type": "bytes32"
        },
        {
          "indexed": false,
          "internalType": "bytes32",
          "name": "userIc",
          "type": "bytes32"
        },
        {
          "indexed": false,
          "internalType": "string",
          "name": "name",
          "type": "string"
        },
        {
          "indexed": false,
          "internalType": "uint256",
          "name": "createdTime",
          "type": "uint256"
        }
      ],
      "name": "CreateUserInfo",
      "type": "event"
    },
    {
      "anonymous": false,
      "inputs": [
        {
          "indexed": true,
          "internalType": "address",
          "name": "previousOwner",
          "type": "address"
        },
        {
          "indexed": true,
          "internalType": "address",
          "name": "newOwner",
          "type": "address"
        }
      ],
      "name": "OwnershipTransferred",
      "type": "event"
    },
    {
      "inputs": [
        {
          "internalType": "string",
          "name": "name",
          "type": "string"
        }
      ],
      "name": "createUserInfo",
      "outputs": [],
      "stateMutability": "nonpayable",
      "type": "function"
    },
    {
      "inputs": [],
      "name": "fetchAllUserInfo",
      "outputs": [
        {
          "components": [
            {
              "internalType": "uint256",
              "name": "userNumber",
              "type": "uint256"
            },
            {
              "internalType": "bytes32",
              "name": "userId",
              "type": "bytes32"
            },
            {
              "internalType": "bytes32",
              "name": "userIc",
              "type": "bytes32"
            },
            {
              "internalType": "string",
              "name": "name",
              "type": "string"
            },
            {
              "internalType": "uint256",
              "name": "createdTime",
              "type": "uint256"
            }
          ],
          "internalType": "struct ID.UserInfo[]",
          "name": "",
          "type": "tuple[]"
        }
      ],
      "stateMutability": "view",
      "type": "function"
    },
    {
      "inputs": [
        {
          "internalType": "bytes32",
          "name": "_userIc",
          "type": "bytes32"
        }
      ],
      "name": "fetchUserInfoByIc",
      "outputs": [
        {
          "components": [
            {
              "internalType": "uint256",
              "name": "userNumber",
              "type": "uint256"
            },
            {
              "internalType": "bytes32",
              "name": "userId",
              "type": "bytes32"
            },
            {
              "internalType": "bytes32",
              "name": "userIc",
              "type": "bytes32"
            },
            {
              "internalType": "string",
              "name": "name",
              "type": "string"
            },
            {
              "internalType": "uint256",
              "name": "createdTime",
              "type": "uint256"
            }
          ],
          "internalType": "struct ID.UserInfo",
          "name": "",
          "type": "tuple"
        }
      ],
      "stateMutability": "view",
      "type": "function"
    },
    {
      "inputs": [
        {
          "internalType": "bytes32",
          "name": "_userId",
          "type": "bytes32"
        }
      ],
      "name": "fetchUserInfoById",
      "outputs": [
        {
          "components": [
            {
              "internalType": "uint256",
              "name": "userNumber",
              "type": "uint256"
            },
            {
              "internalType": "bytes32",
              "name": "userId",
              "type": "bytes32"
            },
            {
              "internalType": "bytes32",
              "name": "userIc",
              "type": "bytes32"
            },
            {
              "internalType": "string",
              "name": "name",
              "type": "string"
            },
            {
              "internalType": "uint256",
              "name": "createdTime",
              "type": "uint256"
            }
          ],
          "internalType": "struct ID.UserInfo",
          "name": "",
          "type": "tuple"
        }
      ],
      "stateMutability": "view",
      "type": "function"
    },
    {
      "inputs": [],
      "name": "owner",
      "outputs": [
        {
          "internalType": "address",
          "name": "",
          "type": "address"
        }
      ],
      "stateMutability": "view",
      "type": "function"
    },
    {
      "inputs": [],
      "name": "renounceOwnership",
      "outputs": [],
      "stateMutability": "nonpayable",
      "type": "function"
    },
    {
      "inputs": [
        {
          "internalType": "address",
          "name": "newOwner",
          "type": "address"
        }
      ],
      "name": "transferOwnership",
      "outputs": [],
      "stateMutability": "nonpayable",
      "type": "function"
    }
  ],
  "bytecode": "0x60806040523480156200001157600080fd5b50604051620016d8380380620016d8833981810160405281019062000037919062000171565b620000576200004b6200006560201b60201c565b6200006d60201b60201c565b8060028190555050620001a3565b600033905090565b60008060009054906101000a900473ffffffffffffffffffffffffffffffffffffffff169050816000806101000a81548173ffffffffffffffffffffffffffffffffffffffff021916908373ffffffffffffffffffffffffffffffffffffffff1602179055508173ffffffffffffffffffffffffffffffffffffffff168173ffffffffffffffffffffffffffffffffffffffff167f8be0079c531659141344cd1fd0a4f28419497f9722a3daafe3b4186f6b6457e060405160405180910390a35050565b600080fd5b6000819050919050565b6200014b8162000136565b81146200015757600080fd5b50565b6000815190506200016b8162000140565b92915050565b6000602082840312156200018a576200018962000131565b5b60006200019a848285016200015a565b91505092915050565b61152580620001b36000396000f3fe608060405234801561001057600080fd5b506004361061007d5760003560e01c80639eae7c3d1161005b5780639eae7c3d146100c8578063ec11f8a4146100f8578063f2fde38b14610114578063fa980a9c146101305761007d565b806320adf28514610082578063715018a6146100a05780638da5cb5b146100aa575b600080fd5b61008a610160565b6040516100979190610b1c565b60405180910390f35b6100a86102ff565b005b6100b2610313565b6040516100bf9190610b7f565b60405180910390f35b6100e260048036038101906100dd9190610bda565b61033c565b6040516100ef9190610c7d565b60405180910390f35b610112600480360381019061010d9190610dd4565b610477565b005b61012e60048036038101906101299190610e49565b6105c1565b005b61014a60048036038101906101459190610bda565b610644565b6040516101579190610c7d565b60405180910390f35b606061016a61077f565b600061017660016107fd565b905060008167ffffffffffffffff81111561019457610193610ca9565b5b6040519080825280602002602001820160405280156101cd57816020015b6101ba6108ed565b8152602001906001900390816101b25790505b50905060005b828110156102f6576000600360006001846101ee9190610ea5565b81526020019081526020016000209050806040518060a001604052908160008201548152602001600182015481526020016002820154815260200160038201805461023890610f08565b80601f016020809104026020016040519081016040528092919081815260200182805461026490610f08565b80156102b15780601f10610286576101008083540402835291602001916102b1565b820191906000526020600020905b81548152906001019060200180831161029457829003601f168201915b505050505081526020016004820154815250508383815181106102d7576102d6610f39565b5b60200260200101819052505080806102ee90610f68565b9150506101d3565b50809250505090565b61030761077f565b610311600061080b565b565b60008060009054906101000a900473ffffffffffffffffffffffffffffffffffffffff16905090565b6103446108ed565b600061035060016107fd565b905060005b8181101561046f576000600360006001846103709190610ea5565b815260200190815260200160002090508481600201540361045b57806040518060a00160405290816000820154815260200160018201548152602001600282015481526020016003820180546103c590610f08565b80601f01602080910402602001604051908101604052809291908181526020018280546103f190610f08565b801561043e5780601f106104135761010080835404028352916020019161043e565b820191906000526020600020905b81548152906001019060200180831161042157829003601f168201915b505050505081526020016004820154815250509350505050610472565b50808061046790610f68565b915050610355565b50505b919050565b61047f61077f565b61048960016108cf565b600061049560016107fd565b9050600042905060006002548383866040516020016104b7949392919061100d565b604051602081830303815290604052805190602001209050600081856002546040516020016104e893929190611078565b6040516020818303038152906040528051906020012090506040518060a001604052808581526020018381526020018281526020018681526020018481525060036000868152602001908152602001600020600082015181600001556020820151816001015560408201518160020155606082015181600301908161056d919061125d565b50608082015181600401559050507fb2846300ba318345304f9bc87cafbed0ae60ced049743f54aa8e3cbe16aadd0f84838388876040516105b2959493929190611397565b60405180910390a15050505050565b6105c961077f565b600073ffffffffffffffffffffffffffffffffffffffff168173ffffffffffffffffffffffffffffffffffffffff1603610638576040517f08c379a000000000000000000000000000000000000000000000000000000000815260040161062f90611463565b60405180910390fd5b6106418161080b565b50565b61064c6108ed565b600061065860016107fd565b905060005b81811015610777576000600360006001846106789190610ea5565b815260200190815260200160002090508481600101540361076357806040518060a00160405290816000820154815260200160018201548152602001600282015481526020016003820180546106cd90610f08565b80601f01602080910402602001604051908101604052809291908181526020018280546106f990610f08565b80156107465780601f1061071b57610100808354040283529160200191610746565b820191906000526020600020905b81548152906001019060200180831161072957829003601f168201915b50505050508152602001600482015481525050935050505061077a565b50808061076f90610f68565b91505061065d565b50505b919050565b6107876108e5565b73ffffffffffffffffffffffffffffffffffffffff166107a5610313565b73ffffffffffffffffffffffffffffffffffffffff16146107fb576040517f08c379a00000000000000000000000000000000000000000000000000000000081526004016107f2906114cf565b60405180910390fd5b565b600081600001549050919050565b60008060009054906101000a900473ffffffffffffffffffffffffffffffffffffffff169050816000806101000a81548173ffffffffffffffffffffffffffffffffffffffff021916908373ffffffffffffffffffffffffffffffffffffffff1602179055508173ffffffffffffffffffffffffffffffffffffffff168173ffffffffffffffffffffffffffffffffffffffff167f8be0079c531659141344cd1fd0a4f28419497f9722a3daafe3b4186f6b6457e060405160405180910390a35050565b6001816000016000828254019250508190555050565b600033905090565b6040518060a0016040528060008152602001600080191681526020016000801916815260200160608152602001600081525090565b600081519050919050565b600082825260208201905092915050565b6000819050602082019050919050565b6000819050919050565b6109618161094e565b82525050565b6000819050919050565b61097a81610967565b82525050565b600081519050919050565b600082825260208201905092915050565b60005b838110156109ba57808201518184015260208101905061099f565b60008484015250505050565b6000601f19601f8301169050919050565b60006109e282610980565b6109ec818561098b565b93506109fc81856020860161099c565b610a05816109c6565b840191505092915050565b600060a083016000830151610a286000860182610958565b506020830151610a3b6020860182610971565b506040830151610a4e6040860182610971565b5060608301518482036060860152610a6682826109d7565b9150506080830151610a7b6080860182610958565b508091505092915050565b6000610a928383610a10565b905092915050565b6000602082019050919050565b6000610ab282610922565b610abc818561092d565b935083602082028501610ace8561093e565b8060005b85811015610b0a5784840389528151610aeb8582610a86565b9450610af683610a9a565b925060208a01995050600181019050610ad2565b50829750879550505050505092915050565b60006020820190508181036000830152610b368184610aa7565b905092915050565b600073ffffffffffffffffffffffffffffffffffffffff82169050919050565b6000610b6982610b3e565b9050919050565b610b7981610b5e565b82525050565b6000602082019050610b946000830184610b70565b92915050565b6000604051905090565b600080fd5b600080fd5b610bb781610967565b8114610bc257600080fd5b50565b600081359050610bd481610bae565b92915050565b600060208284031215610bf057610bef610ba4565b5b6000610bfe84828501610bc5565b91505092915050565b600060a083016000830151610c1f6000860182610958565b506020830151610c326020860182610971565b506040830151610c456040860182610971565b5060608301518482036060860152610c5d82826109d7565b9150506080830151610c726080860182610958565b508091505092915050565b60006020820190508181036000830152610c978184610c07565b905092915050565b600080fd5b600080fd5b7f4e487b7100000000000000000000000000000000000000000000000000000000600052604160045260246000fd5b610ce1826109c6565b810181811067ffffffffffffffff82111715610d0057610cff610ca9565b5b80604052505050565b6000610d13610b9a565b9050610d1f8282610cd8565b919050565b600067ffffffffffffffff821115610d3f57610d3e610ca9565b5b610d48826109c6565b9050602081019050919050565b82818337600083830152505050565b6000610d77610d7284610d24565b610d09565b905082815260208101848484011115610d9357610d92610ca4565b5b610d9e848285610d55565b509392505050565b600082601f830112610dbb57610dba610c9f565b5b8135610dcb848260208601610d64565b91505092915050565b600060208284031215610dea57610de9610ba4565b5b600082013567ffffffffffffffff811115610e0857610e07610ba9565b5b610e1484828501610da6565b91505092915050565b610e2681610b5e565b8114610e3157600080fd5b50565b600081359050610e4381610e1d565b92915050565b600060208284031215610e5f57610e5e610ba4565b5b6000610e6d84828501610e34565b91505092915050565b7f4e487b7100000000000000000000000000000000000000000000000000000000600052601160045260246000fd5b6000610eb08261094e565b9150610ebb8361094e565b9250828201905080821115610ed357610ed2610e76565b5b92915050565b7f4e487b7100000000000000000000000000000000000000000000000000000000600052602260045260246000fd5b60006002820490506001821680610f2057607f821691505b602082108103610f3357610f32610ed9565b5b50919050565b7f4e487b7100000000000000000000000000000000000000000000000000000000600052603260045260246000fd5b6000610f738261094e565b91507fffffffffffffffffffffffffffffffffffffffffffffffffffffffffffffffff8203610fa557610fa4610e76565b5b600182019050919050565b6000819050919050565b610fcb610fc68261094e565b610fb0565b82525050565b600081905092915050565b6000610fe782610980565b610ff18185610fd1565b935061100181856020860161099c565b80840191505092915050565b60006110198287610fba565b6020820191506110298286610fba565b6020820191506110398285610fba565b6020820191506110498284610fdc565b915081905095945050505050565b6000819050919050565b61107261106d82610967565b611057565b82525050565b60006110848286611061565b6020820191506110948285610fdc565b91506110a08284610fba565b602082019150819050949350505050565b60008190508160005260206000209050919050565b60006020601f8301049050919050565b600082821b905092915050565b6000600883026111137fffffffffffffffffffffffffffffffffffffffffffffffffffffffffffffffff826110d6565b61111d86836110d6565b95508019841693508086168417925050509392505050565b6000819050919050565b600061115a6111556111508461094e565b611135565b61094e565b9050919050565b6000819050919050565b6111748361113f565b61118861118082611161565b8484546110e3565b825550505050565b600090565b61119d611190565b6111a881848461116b565b505050565b5b818110156111cc576111c1600082611195565b6001810190506111ae565b5050565b601f821115611211576111e2816110b1565b6111eb846110c6565b810160208510156111fa578190505b61120e611206856110c6565b8301826111ad565b50505b505050565b600082821c905092915050565b600061123460001984600802611216565b1980831691505092915050565b600061124d8383611223565b9150826002028217905092915050565b61126682610980565b67ffffffffffffffff81111561127f5761127e610ca9565b5b6112898254610f08565b6112948282856111d0565b600060209050601f8311600181146112c757600084156112b5578287015190505b6112bf8582611241565b865550611327565b601f1984166112d5866110b1565b60005b828110156112fd578489015182556001820191506020850194506020810190506112d8565b8683101561131a5784890151611316601f891682611223565b8355505b6001600288020188555050505b505050505050565b6113388161094e565b82525050565b61134781610967565b82525050565b600082825260208201905092915050565b600061136982610980565b611373818561134d565b935061138381856020860161099c565b61138c816109c6565b840191505092915050565b600060a0820190506113ac600083018861132f565b6113b9602083018761133e565b6113c6604083018661133e565b81810360608301526113d8818561135e565b90506113e7608083018461132f565b9695505050505050565b7f4f776e61626c653a206e6577206f776e657220697320746865207a65726f206160008201527f6464726573730000000000000000000000000000000000000000000000000000602082015250565b600061144d60268361134d565b9150611458826113f1565b604082019050919050565b6000602082019050818103600083015261147c81611440565b9050919050565b7f4f776e61626c653a2063616c6c6572206973206e6f7420746865206f776e6572600082015250565b60006114b960208361134d565b91506114c482611483565b602082019050919050565b600060208201905081810360008301526114e8816114ac565b905091905056fea264697066735822122059a06423bb0b17df5fe52b1f3cd4322b5e149b3aec8f2a952046f70b8b3ac7de64736f6c63430008110033",
  "linkReferences": {},
  "deployedLinkReferences": {}
}