{
  "_format": "hh-sol-artifact-1",
  "contractName": "VTAdmin",
  "sourceName": "contracts/VTAdmin.sol",
  "abi": [
    {
      "inputs": [
        {
          "internalType": "uint256",
          "name": "_secretNum",
          "type": "uint256"
        }
      ],
      "stateMutability": "nonpayable",
      "type": "constructor"
    },
    {
      "anonymous": false,
      "inputs": [
        {
          "indexed": false,
          "internalType": "uint256",
          "name": "userNum",
          "type": "uint256"
        },
        {
          "indexed": true,
          "internalType": "bytes32",
          "name": "userId",
          "type": "bytes32"
        },
        {
          "indexed": false,
          "internalType": "string",
          "name": "name",
          "type": "string"
        },
        {
          "indexed": false,
          "internalType": "uint256",
          "name": "addedTime",
          "type": "uint256"
        }
      ],
      "name": "AddedUser",
      "type": "event"
    },
    {
      "anonymous": false,
      "inputs": [
        {
          "indexed": true,
          "internalType": "address",
          "name": "owner",
          "type": "address"
        },
        {
          "indexed": true,
          "internalType": "address",
          "name": "approved",
          "type": "address"
        },
        {
          "indexed": true,
          "internalType": "uint256",
          "name": "tokenId",
          "type": "uint256"
        }
      ],
      "name": "Approval",
      "type": "event"
    },
    {
      "anonymous": false,
      "inputs": [
        {
          "indexed": true,
          "internalType": "address",
          "name": "owner",
          "type": "address"
        },
        {
          "indexed": true,
          "internalType": "address",
          "name": "operator",
          "type": "address"
        },
        {
          "indexed": false,
          "internalType": "bool",
          "name": "approved",
          "type": "bool"
        }
      ],
      "name": "ApprovalForAll",
      "type": "event"
    },
    {
      "anonymous": false,
      "inputs": [
        {
          "indexed": false,
          "internalType": "uint256",
          "name": "tokenId",
          "type": "uint256"
        },
        {
          "indexed": false,
          "internalType": "bytes32",
          "name": "ic",
          "type": "bytes32"
        },
        {
          "indexed": false,
          "internalType": "uint256",
          "name": "createdTime",
          "type": "uint256"
        }
      ],
      "name": "CreateToken",
      "type": "event"
    },
    {
      "anonymous": false,
      "inputs": [
        {
          "indexed": true,
          "internalType": "address",
          "name": "previousOwner",
          "type": "address"
        },
        {
          "indexed": true,
          "internalType": "address",
          "name": "newOwner",
          "type": "address"
        }
      ],
      "name": "OwnershipTransferred",
      "type": "event"
    },
    {
      "anonymous": false,
      "inputs": [
        {
          "indexed": false,
          "internalType": "uint256",
          "name": "tokenId",
          "type": "uint256"
        },
        {
          "indexed": true,
          "internalType": "bytes32",
          "name": "ic",
          "type": "bytes32"
        },
        {
          "indexed": false,
          "internalType": "bytes32",
          "name": "currentOwnerId",
          "type": "bytes32"
        },
        {
          "indexed": false,
          "internalType": "uint256",
          "name": "txTime",
          "type": "uint256"
        }
      ],
      "name": "Transaction",
      "type": "event"
    },
    {
      "anonymous": false,
      "inputs": [
        {
          "indexed": true,
          "internalType": "address",
          "name": "from",
          "type": "address"
        },
        {
          "indexed": true,
          "internalType": "address",
          "name": "to",
          "type": "address"
        },
        {
          "indexed": true,
          "internalType": "uint256",
          "name": "tokenId",
          "type": "uint256"
        }
      ],
      "name": "Transfer",
      "type": "event"
    },
    {
      "inputs": [
        {
          "internalType": "string",
          "name": "_name",
          "type": "string"
        }
      ],
      "name": "addUser",
      "outputs": [
        {
          "internalType": "bytes32",
          "name": "",
          "type": "bytes32"
        }
      ],
      "stateMutability": "nonpayable",
      "type": "function"
    },
    {
      "inputs": [
        {
          "internalType": "address",
          "name": "to",
          "type": "address"
        },
        {
          "internalType": "uint256",
          "name": "tokenId",
          "type": "uint256"
        }
      ],
      "name": "approve",
      "outputs": [],
      "stateMutability": "nonpayable",
      "type": "function"
    },
    {
      "inputs": [
        {
          "internalType": "address",
          "name": "owner",
          "type": "address"
        }
      ],
      "name": "balanceOf",
      "outputs": [
        {
          "internalType": "uint256",
          "name": "",
          "type": "uint256"
        }
      ],
      "stateMutability": "view",
      "type": "function"
    },
    {
      "inputs": [
        {
          "internalType": "bytes32",
          "name": "_ic",
          "type": "bytes32"
        },
        {
          "internalType": "bytes32",
          "name": "_id",
          "type": "bytes32"
        }
      ],
      "name": "changeOwner",
      "outputs": [],
      "stateMutability": "nonpayable",
      "type": "function"
    },
    {
      "inputs": [
        {
          "internalType": "string",
          "name": "_tokenURI",
          "type": "string"
        },
        {
          "internalType": "bytes32",
          "name": "_id",
          "type": "bytes32"
        }
      ],
      "name": "createToken",
      "outputs": [
        {
          "internalType": "bytes32",
          "name": "",
          "type": "bytes32"
        }
      ],
      "stateMutability": "nonpayable",
      "type": "function"
    },
    {
      "inputs": [],
      "name": "fetchAllItems",
      "outputs": [
        {
          "components": [
            {
              "internalType": "uint256",
              "name": "tokenId",
              "type": "uint256"
            },
            {
              "internalType": "bytes32",
              "name": "ic",
              "type": "bytes32"
            },
            {
              "internalType": "bytes32",
              "name": "ownerId",
              "type": "bytes32"
            },
            {
              "internalType": "uint256",
              "name": "txTime",
              "type": "uint256"
            }
          ],
          "internalType": "struct VTAdmin.Item[]",
          "name": "",
          "type": "tuple[]"
        }
      ],
      "stateMutability": "view",
      "type": "function"
    },
    {
      "inputs": [],
      "name": "fetchAllUsers",
      "outputs": [
        {
          "components": [
            {
              "internalType": "uint256",
              "name": "userNum",
              "type": "uint256"
            },
            {
              "internalType": "bytes32",
              "name": "userId",
              "type": "bytes32"
            },
            {
              "internalType": "string",
              "name": "name",
              "type": "string"
            }
          ],
          "internalType": "struct VTAdmin.User[]",
          "name": "",
          "type": "tuple[]"
        }
      ],
      "stateMutability": "view",
      "type": "function"
    },
    {
      "inputs": [
        {
          "internalType": "bytes32",
          "name": "_ic",
          "type": "bytes32"
        }
      ],
      "name": "fetchItemByIC",
      "outputs": [
        {
          "components": [
            {
              "internalType": "uint256",
              "name": "tokenId",
              "type": "uint256"
            },
            {
              "internalType": "bytes32",
              "name": "ic",
              "type": "bytes32"
            },
            {
              "internalType": "bytes32",
              "name": "ownerId",
              "type": "bytes32"
            },
            {
              "internalType": "uint256",
              "name": "txTime",
              "type": "uint256"
            }
          ],
          "internalType": "struct VTAdmin.Item",
          "name": "",
          "type": "tuple"
        }
      ],
      "stateMutability": "view",
      "type": "function"
    },
    {
      "inputs": [
        {
          "internalType": "bytes32",
          "name": "_id",
          "type": "bytes32"
        }
      ],
      "name": "fetchItemsById",
      "outputs": [
        {
          "components": [
            {
              "internalType": "uint256",
              "name": "tokenId",
              "type": "uint256"
            },
            {
              "internalType": "bytes32",
              "name": "ic",
              "type": "bytes32"
            },
            {
              "internalType": "bytes32",
              "name": "ownerId",
              "type": "bytes32"
            },
            {
              "internalType": "uint256",
              "name": "txTime",
              "type": "uint256"
            }
          ],
          "internalType": "struct VTAdmin.Item[]",
          "name": "",
          "type": "tuple[]"
        }
      ],
      "stateMutability": "view",
      "type": "function"
    },
    {
      "inputs": [
        {
          "internalType": "uint256",
          "name": "tokenId",
          "type": "uint256"
        }
      ],
      "name": "getApproved",
      "outputs": [
        {
          "internalType": "address",
          "name": "",
          "type": "address"
        }
      ],
      "stateMutability": "view",
      "type": "function"
    },
    {
      "inputs": [
        {
          "internalType": "address",
          "name": "owner",
          "type": "address"
        },
        {
          "internalType": "address",
          "name": "operator",
          "type": "address"
        }
      ],
      "name": "isApprovedForAll",
      "outputs": [
        {
          "internalType": "bool",
          "name": "",
          "type": "bool"
        }
      ],
      "stateMutability": "view",
      "type": "function"
    },
    {
      "inputs": [],
      "name": "name",
      "outputs": [
        {
          "internalType": "string",
          "name": "",
          "type": "string"
        }
      ],
      "stateMutability": "view",
      "type": "function"
    },
    {
      "inputs": [],
      "name": "owner",
      "outputs": [
        {
          "internalType": "address",
          "name": "",
          "type": "address"
        }
      ],
      "stateMutability": "view",
      "type": "function"
    },
    {
      "inputs": [
        {
          "internalType": "uint256",
          "name": "tokenId",
          "type": "uint256"
        }
      ],
      "name": "ownerOf",
      "outputs": [
        {
          "internalType": "address",
          "name": "",
          "type": "address"
        }
      ],
      "stateMutability": "view",
      "type": "function"
    },
    {
      "inputs": [],
      "name": "renounceOwnership",
      "outputs": [],
      "stateMutability": "nonpayable",
      "type": "function"
    },
    {
      "inputs": [
        {
          "internalType": "address",
          "name": "from",
          "type": "address"
        },
        {
          "internalType": "address",
          "name": "to",
          "type": "address"
        },
        {
          "internalType": "uint256",
          "name": "tokenId",
          "type": "uint256"
        }
      ],
      "name": "safeTransferFrom",
      "outputs": [],
      "stateMutability": "nonpayable",
      "type": "function"
    },
    {
      "inputs": [
        {
          "internalType": "address",
          "name": "from",
          "type": "address"
        },
        {
          "internalType": "address",
          "name": "to",
          "type": "address"
        },
        {
          "internalType": "uint256",
          "name": "tokenId",
          "type": "uint256"
        },
        {
          "internalType": "bytes",
          "name": "data",
          "type": "bytes"
        }
      ],
      "name": "safeTransferFrom",
      "outputs": [],
      "stateMutability": "nonpayable",
      "type": "function"
    },
    {
      "inputs": [
        {
          "internalType": "address",
          "name": "operator",
          "type": "address"
        },
        {
          "internalType": "bool",
          "name": "approved",
          "type": "bool"
        }
      ],
      "name": "setApprovalForAll",
      "outputs": [],
      "stateMutability": "nonpayable",
      "type": "function"
    },
    {
      "inputs": [
        {
          "internalType": "bytes4",
          "name": "interfaceId",
          "type": "bytes4"
        }
      ],
      "name": "supportsInterface",
      "outputs": [
        {
          "internalType": "bool",
          "name": "",
          "type": "bool"
        }
      ],
      "stateMutability": "view",
      "type": "function"
    },
    {
      "inputs": [],
      "name": "symbol",
      "outputs": [
        {
          "internalType": "string",
          "name": "",
          "type": "string"
        }
      ],
      "stateMutability": "view",
      "type": "function"
    },
    {
      "inputs": [
        {
          "internalType": "uint256",
          "name": "tokenId",
          "type": "uint256"
        }
      ],
      "name": "tokenURI",
      "outputs": [
        {
          "internalType": "string",
          "name": "",
          "type": "string"
        }
      ],
      "stateMutability": "view",
      "type": "function"
    },
    {
      "inputs": [
        {
          "internalType": "address",
          "name": "from",
          "type": "address"
        },
        {
          "internalType": "address",
          "name": "to",
          "type": "address"
        },
        {
          "internalType": "uint256",
          "name": "tokenId",
          "type": "uint256"
        }
      ],
      "name": "transferFrom",
      "outputs": [],
      "stateMutability": "nonpayable",
      "type": "function"
    },
    {
      "inputs": [
        {
          "internalType": "address",
          "name": "newOwner",
          "type": "address"
        }
      ],
      "name": "transferOwnership",
      "outputs": [],
      "stateMutability": "nonpayable",
      "type": "function"
    }
  ],
  "bytecode": "0x60806040523480156200001157600080fd5b50604051620045ca380380620045ca83398181016040528101906200003791906200020d565b6040518060400160405280600f81526020017f56616c6c6579696e20546f6b656e7300000000000000000000000000000000008152506040518060400160405280600281526020017f56540000000000000000000000000000000000000000000000000000000000008152506001600081905550620000cb620000bf620000ff60201b60201c565b6200010760201b60201c565b8160029081620000dc9190620004af565b508060039081620000ee9190620004af565b50505080600b819055505062000596565b600033905090565b6000600160009054906101000a900473ffffffffffffffffffffffffffffffffffffffff16905081600160006101000a81548173ffffffffffffffffffffffffffffffffffffffff021916908373ffffffffffffffffffffffffffffffffffffffff1602179055508173ffffffffffffffffffffffffffffffffffffffff168173ffffffffffffffffffffffffffffffffffffffff167f8be0079c531659141344cd1fd0a4f28419497f9722a3daafe3b4186f6b6457e060405160405180910390a35050565b600080fd5b6000819050919050565b620001e781620001d2565b8114620001f357600080fd5b50565b6000815190506200020781620001dc565b92915050565b600060208284031215620002265762000225620001cd565b5b60006200023684828501620001f6565b91505092915050565b600081519050919050565b7f4e487b7100000000000000000000000000000000000000000000000000000000600052604160045260246000fd5b7f4e487b7100000000000000000000000000000000000000000000000000000000600052602260045260246000fd5b60006002820490506001821680620002c157607f821691505b602082108103620002d757620002d662000279565b5b50919050565b60008190508160005260206000209050919050565b60006020601f8301049050919050565b600082821b905092915050565b600060088302620003417fffffffffffffffffffffffffffffffffffffffffffffffffffffffffffffffff8262000302565b6200034d868362000302565b95508019841693508086168417925050509392505050565b6000819050919050565b6000620003906200038a6200038484620001d2565b62000365565b620001d2565b9050919050565b6000819050919050565b620003ac836200036f565b620003c4620003bb8262000397565b8484546200030f565b825550505050565b600090565b620003db620003cc565b620003e8818484620003a1565b505050565b5b81811015620004105762000404600082620003d1565b600181019050620003ee565b5050565b601f8211156200045f576200042981620002dd565b6200043484620002f2565b8101602085101562000444578190505b6200045c6200045385620002f2565b830182620003ed565b50505b505050565b600082821c905092915050565b6000620004846000198460080262000464565b1980831691505092915050565b60006200049f838362000471565b9150826002028217905092915050565b620004ba826200023f565b67ffffffffffffffff811115620004d657620004d56200024a565b5b620004e28254620002a8565b620004ef82828562000414565b600060209050601f83116001811462000527576000841562000512578287015190505b6200051e858262000491565b8655506200058e565b601f1984166200053786620002dd565b60005b8281101562000561578489015182556001820191506020850194506020810190506200053a565b868310156200058157848901516200057d601f89168262000471565b8355505b6001600288020188555050505b505050505050565b61402480620005a66000396000f3fe608060405234801561001057600080fd5b506004361061014d5760003560e01c8063715018a6116100c3578063b88d4fde1161007c578063b88d4fde146103b0578063c3374315146103cc578063c87b56dd146103ea578063c98197961461041a578063e985e9c51461044a578063f2fde38b1461047a5761014d565b8063715018a6146103005780637a67c73e1461030a5780638da5cb5b1461033a57806395d89b411461035857806397598cc314610376578063a22cb465146103945761014d565b806318b8275a1161011557806318b8275a1461021c57806323b872dd1461024c57806342842e0e146102685780636352211e146102845780636487d6fb146102b457806370a08231146102d05761014d565b806301ffc9a71461015257806306fdde0314610182578063081812fc146101a0578063095ea7b3146101d0578063127884c7146101ec575b600080fd5b61016c600480360381019061016791906125ce565b610496565b6040516101799190612616565b60405180910390f35b61018a610578565b60405161019791906126c1565b60405180910390f35b6101ba60048036038101906101b59190612719565b61060a565b6040516101c79190612787565b60405180910390f35b6101ea60048036038101906101e591906127ce565b610650565b005b61020660048036038101906102019190612979565b610767565b60405161021391906129e4565b60405180910390f35b610236600480360381019061023191906129ff565b61094e565b60405161024391906129e4565b60405180910390f35b61026660048036038101906102619190612a48565b610a9f565b005b610282600480360381019061027d9190612a48565b610aff565b005b61029e60048036038101906102999190612719565b610b1f565b6040516102ab9190612787565b60405180910390f35b6102ce60048036038101906102c99190612a9b565b610bd0565b005b6102ea60048036038101906102e59190612adb565b610cf9565b6040516102f79190612b17565b60405180910390f35b610308610db0565b005b610324600480360381019061031f9190612b32565b610dc4565b6040516103319190612bd2565b60405180910390f35b610342610e84565b60405161034f9190612787565b60405180910390f35b610360610eae565b60405161036d91906126c1565b60405180910390f35b61037e610f40565b60405161038b9190612cf1565b60405180910390f35b6103ae60048036038101906103a99190612d3f565b611047565b005b6103ca60048036038101906103c59190612e20565b61105d565b005b6103d46110bf565b6040516103e19190612fff565b60405180910390f35b61040460048036038101906103ff9190612719565b611244565b60405161041191906126c1565b60405180910390f35b610434600480360381019061042f9190612b32565b611356565b6040516104419190612cf1565b60405180910390f35b610464600480360381019061045f9190613021565b611532565b6040516104719190612616565b60405180910390f35b610494600480360381019061048f9190612adb565b6115c6565b005b60007f80ac58cd000000000000000000000000000000000000000000000000000000007bffffffffffffffffffffffffffffffffffffffffffffffffffffffff1916827bffffffffffffffffffffffffffffffffffffffffffffffffffffffff1916148061056157507f5b5e139f000000000000000000000000000000000000000000000000000000007bffffffffffffffffffffffffffffffffffffffffffffffffffffffff1916827bffffffffffffffffffffffffffffffffffffffffffffffffffffffff1916145b80610571575061057082611649565b5b9050919050565b60606002805461058790613090565b80601f01602080910402602001604051908101604052809291908181526020018280546105b390613090565b80156106005780601f106105d557610100808354040283529160200191610600565b820191906000526020600020905b8154815290600101906020018083116105e357829003601f168201915b5050505050905090565b6000610615826116b3565b6006600083815260200190815260200160002060009054906101000a900473ffffffffffffffffffffffffffffffffffffffff169050919050565b600061065b82610b1f565b90508073ffffffffffffffffffffffffffffffffffffffff168373ffffffffffffffffffffffffffffffffffffffff16036106cb576040517f08c379a00000000000000000000000000000000000000000000000000000000081526004016106c290613133565b60405180910390fd5b8073ffffffffffffffffffffffffffffffffffffffff166106ea6116fe565b73ffffffffffffffffffffffffffffffffffffffff1614806107195750610718816107136116fe565b611532565b5b610758576040517f08c379a000000000000000000000000000000000000000000000000000000000815260040161074f906131c5565b60405180910390fd5b6107628383611706565b505050565b60006107716117bf565b6002600054036107b6576040517f08c379a00000000000000000000000000000000000000000000000000000000081526004016107ad90613231565b60405180910390fd5b60026000819055506107c78261183d565b610806576040517f08c379a00000000000000000000000000000000000000000000000000000000081526004016107fd9061329d565b60405180910390fd5b61081060096118b1565b600061081c60096118c7565b905061082830826118d5565b6108328185611aae565b60004285600b548660405160200161084d949392919061333b565b604051602081830303815290604052805190602001209050604051806080016040528083815260200182815260200185815260200142815250600d6000848152602001908152602001600020600082015181600001556020820151816001015560408201518160020155606082015181600301559050507f7a095b8e75ced5d48496b8e4fa1c432b39e6c353587b7fbecb6d36ffa9164b6f8282426040516108f793929190613385565b60405180910390a1807f851758407aa6e6a4989f0350b594067d78101753d8e039a346d23a23decb5d6a83864260405161093393929190613385565b60405180910390a28092505050600160008190555092915050565b60006109586117bf565b60026000540361099d576040517f08c379a000000000000000000000000000000000000000000000000000000000815260040161099490613231565b60405180910390fd5b60026000819055506109af600a6118b1565b60006109bb600a6118c7565b905060008342600b54846040516020016109d894939291906133bc565b6040516020818303038152906040528051906020012090506000604051806060016040528084815260200183815260200186815250905080600c600085815260200190815260200160002060008201518160000155602082015181600101556040820151816002019081610a4c91906135b2565b50905050817f522382c6e61994742de6c20ee7fd137329c7e818def9dae2ba2208dd7adda608848742604051610a8493929190613684565b60405180910390a28193505050506001600081905550919050565b610ab0610aaa6116fe565b82611b1b565b610aef576040517f08c379a0000000000000000000000000000000000000000000000000000000008152600401610ae690613734565b60405180910390fd5b610afa838383611bb0565b505050565b610b1a8383836040518060200160405280600081525061105d565b505050565b6000806004600084815260200190815260200160002060009054906101000a900473ffffffffffffffffffffffffffffffffffffffff169050600073ffffffffffffffffffffffffffffffffffffffff168173ffffffffffffffffffffffffffffffffffffffff1603610bc7576040517f08c379a0000000000000000000000000000000000000000000000000000000008152600401610bbe906137a0565b60405180910390fd5b80915050919050565b610bd86117bf565b610be18161183d565b610c20576040517f08c379a0000000000000000000000000000000000000000000000000000000008152600401610c179061329d565b60405180910390fd5b610c2982611e16565b610c68576040517f08c379a0000000000000000000000000000000000000000000000000000000008152600401610c5f9061380c565b60405180910390fd5b6000610c7383610dc4565b905081600d600083600001518152602001908152602001600020600201819055506000600d600083600001518152602001908152602001600020905080600101547f851758407aa6e6a4989f0350b594067d78101753d8e039a346d23a23decb5d6a82600001548542604051610ceb93929190613385565b60405180910390a250505050565b60008073ffffffffffffffffffffffffffffffffffffffff168273ffffffffffffffffffffffffffffffffffffffff1603610d69576040517f08c379a0000000000000000000000000000000000000000000000000000000008152600401610d609061389e565b60405180910390fd5b600560008373ffffffffffffffffffffffffffffffffffffffff1673ffffffffffffffffffffffffffffffffffffffff168152602001908152602001600020549050919050565b610db86117bf565b610dc26000611e83565b565b610dcc612510565b6000610dd860096118c7565b905060005b81811015610e7c5783600d6000600184610df791906138ed565b81526020019081526020016000206001015403610e6957600d6000600183610e1f91906138ed565b815260200190815260200160002060405180608001604052908160008201548152602001600182015481526020016002820154815260200160038201548152505092505050610e7f565b8080610e7490613921565b915050610ddd565b50505b919050565b6000600160009054906101000a900473ffffffffffffffffffffffffffffffffffffffff16905090565b606060038054610ebd90613090565b80601f0160208091040260200160405190810160405280929190818152602001828054610ee990613090565b8015610f365780601f10610f0b57610100808354040283529160200191610f36565b820191906000526020600020905b815481529060010190602001808311610f1957829003601f168201915b5050505050905090565b6060610f4a6117bf565b6000610f5660096118c7565b905060008167ffffffffffffffff811115610f7457610f73612818565b5b604051908082528060200260200182016040528015610fad57816020015b610f9a612510565b815260200190600190039081610f925790505b50905060005b8281101561103e57600d6000600183610fcc91906138ed565b81526020019081526020016000206040518060800160405290816000820154815260200160018201548152602001600282015481526020016003820154815250508282815181106110205761101f613969565b5b6020026020010181905250808061103690613921565b915050610fb3565b50809250505090565b6110596110526116fe565b8383611f49565b5050565b61106e6110686116fe565b83611b1b565b6110ad576040517f08c379a00000000000000000000000000000000000000000000000000000000081526004016110a490613734565b60405180910390fd5b6110b9848484846120b5565b50505050565b60606110c96117bf565b60006110d5600a6118c7565b905060008167ffffffffffffffff8111156110f3576110f2612818565b5b60405190808252806020026020018201604052801561112c57816020015b61111961253e565b8152602001906001900390816111115790505b50905060005b8281101561123b57600c600060018361114b91906138ed565b8152602001908152602001600020604051806060016040529081600082015481526020016001820154815260200160028201805461118890613090565b80601f01602080910402602001604051908101604052809291908181526020018280546111b490613090565b80156112015780601f106111d657610100808354040283529160200191611201565b820191906000526020600020905b8154815290600101906020018083116111e457829003601f168201915b50505050508152505082828151811061121d5761121c613969565b5b6020026020010181905250808061123390613921565b915050611132565b50809250505090565b606061124f826116b3565b600060086000848152602001908152602001600020805461126f90613090565b80601f016020809104026020016040519081016040528092919081815260200182805461129b90613090565b80156112e85780601f106112bd576101008083540402835291602001916112e8565b820191906000526020600020905b8154815290600101906020018083116112cb57829003601f168201915b5050505050905060006112f9612111565b9050600081510361130e578192505050611351565b60008251111561134357808260405160200161132b929190613998565b60405160208183030381529060405292505050611351565b61134c84612128565b925050505b919050565b60606113618261183d565b6113a0576040517f08c379a00000000000000000000000000000000000000000000000000000000081526004016113979061329d565b60405180910390fd5b60006113ac60096118c7565b90506000805b828110156114055784600d60006001846113cc91906138ed565b815260200190815260200160002060020154036113f25781806113ee90613921565b9250505b80806113fd90613921565b9150506113b2565b5060008167ffffffffffffffff81111561142257611421612818565b5b60405190808252806020026020018201604052801561145b57816020015b611448612510565b8152602001906001900390816114405790505b5090506000805b848110156115255786600d600060018461147c91906138ed565b8152602001908152602001600020600201540361151257600d60006001836114a491906138ed565b81526020019081526020016000206040518060800160405290816000820154815260200160018201548152602001600282015481526020016003820154815250508383815181106114f8576114f7613969565b5b6020026020010181905250818061150e90613921565b9250505b808061151d90613921565b915050611462565b5081945050505050919050565b6000600760008473ffffffffffffffffffffffffffffffffffffffff1673ffffffffffffffffffffffffffffffffffffffff16815260200190815260200160002060008373ffffffffffffffffffffffffffffffffffffffff1673ffffffffffffffffffffffffffffffffffffffff16815260200190815260200160002060009054906101000a900460ff16905092915050565b6115ce6117bf565b600073ffffffffffffffffffffffffffffffffffffffff168173ffffffffffffffffffffffffffffffffffffffff160361163d576040517f08c379a000000000000000000000000000000000000000000000000000000000815260040161163490613a2e565b60405180910390fd5b61164681611e83565b50565b60007f01ffc9a7000000000000000000000000000000000000000000000000000000007bffffffffffffffffffffffffffffffffffffffffffffffffffffffff1916827bffffffffffffffffffffffffffffffffffffffffffffffffffffffff1916149050919050565b6116bc81612190565b6116fb576040517f08c379a00000000000000000000000000000000000000000000000000000000081526004016116f2906137a0565b60405180910390fd5b50565b600033905090565b816006600083815260200190815260200160002060006101000a81548173ffffffffffffffffffffffffffffffffffffffff021916908373ffffffffffffffffffffffffffffffffffffffff160217905550808273ffffffffffffffffffffffffffffffffffffffff1661177983610b1f565b73ffffffffffffffffffffffffffffffffffffffff167f8c5be1e5ebec7d5bd14f71427d1e84f3dd0314c0f7b2291e5b200ac8c7c3b92560405160405180910390a45050565b6117c76116fe565b73ffffffffffffffffffffffffffffffffffffffff166117e5610e84565b73ffffffffffffffffffffffffffffffffffffffff161461183b576040517f08c379a000000000000000000000000000000000000000000000000000000000815260040161183290613a9a565b60405180910390fd5b565b60008061184a600a6118c7565b905060005b818110156118a5576000600c600060018461186a91906138ed565b815260200190815260200160002090508481600101540361189157600193505050506118ac565b50808061189d90613921565b91505061184f565b5060009150505b919050565b6001816000016000828254019250508190555050565b600081600001549050919050565b600073ffffffffffffffffffffffffffffffffffffffff168273ffffffffffffffffffffffffffffffffffffffff1603611944576040517f08c379a000000000000000000000000000000000000000000000000000000000815260040161193b90613b06565b60405180910390fd5b61194d81612190565b1561198d576040517f08c379a000000000000000000000000000000000000000000000000000000000815260040161198490613b72565b60405180910390fd5b611999600083836121fc565b6001600560008473ffffffffffffffffffffffffffffffffffffffff1673ffffffffffffffffffffffffffffffffffffffff16815260200190815260200160002060008282546119e991906138ed565b92505081905550816004600083815260200190815260200160002060006101000a81548173ffffffffffffffffffffffffffffffffffffffff021916908373ffffffffffffffffffffffffffffffffffffffff160217905550808273ffffffffffffffffffffffffffffffffffffffff16600073ffffffffffffffffffffffffffffffffffffffff167fddf252ad1be2c89b69c2b068fc378daa952ba7f163c4a11628f55a4df523b3ef60405160405180910390a4611aaa60008383612201565b5050565b611ab782612190565b611af6576040517f08c379a0000000000000000000000000000000000000000000000000000000008152600401611aed90613c04565b60405180910390fd5b80600860008481526020019081526020016000209081611b1691906135b2565b505050565b600080611b2783610b1f565b90508073ffffffffffffffffffffffffffffffffffffffff168473ffffffffffffffffffffffffffffffffffffffff161480611b695750611b688185611532565b5b80611ba757508373ffffffffffffffffffffffffffffffffffffffff16611b8f8461060a565b73ffffffffffffffffffffffffffffffffffffffff16145b91505092915050565b8273ffffffffffffffffffffffffffffffffffffffff16611bd082610b1f565b73ffffffffffffffffffffffffffffffffffffffff1614611c26576040517f08c379a0000000000000000000000000000000000000000000000000000000008152600401611c1d90613c96565b60405180910390fd5b600073ffffffffffffffffffffffffffffffffffffffff168273ffffffffffffffffffffffffffffffffffffffff1603611c95576040517f08c379a0000000000000000000000000000000000000000000000000000000008152600401611c8c90613d28565b60405180910390fd5b611ca08383836121fc565b611cab600082611706565b6001600560008573ffffffffffffffffffffffffffffffffffffffff1673ffffffffffffffffffffffffffffffffffffffff1681526020019081526020016000206000828254611cfb9190613d48565b925050819055506001600560008473ffffffffffffffffffffffffffffffffffffffff1673ffffffffffffffffffffffffffffffffffffffff1681526020019081526020016000206000828254611d5291906138ed565b92505081905550816004600083815260200190815260200160002060006101000a81548173ffffffffffffffffffffffffffffffffffffffff021916908373ffffffffffffffffffffffffffffffffffffffff160217905550808273ffffffffffffffffffffffffffffffffffffffff168473ffffffffffffffffffffffffffffffffffffffff167fddf252ad1be2c89b69c2b068fc378daa952ba7f163c4a11628f55a4df523b3ef60405160405180910390a4611e11838383612201565b505050565b600080611e2360096118c7565b905060005b81811015611e775783600d6000600184611e4291906138ed565b81526020019081526020016000206001015403611e6457600192505050611e7e565b8080611e6f90613921565b915050611e28565b5060009150505b919050565b6000600160009054906101000a900473ffffffffffffffffffffffffffffffffffffffff16905081600160006101000a81548173ffffffffffffffffffffffffffffffffffffffff021916908373ffffffffffffffffffffffffffffffffffffffff1602179055508173ffffffffffffffffffffffffffffffffffffffff168173ffffffffffffffffffffffffffffffffffffffff167f8be0079c531659141344cd1fd0a4f28419497f9722a3daafe3b4186f6b6457e060405160405180910390a35050565b8173ffffffffffffffffffffffffffffffffffffffff168373ffffffffffffffffffffffffffffffffffffffff1603611fb7576040517f08c379a0000000000000000000000000000000000000000000000000000000008152600401611fae90613dc8565b60405180910390fd5b80600760008573ffffffffffffffffffffffffffffffffffffffff1673ffffffffffffffffffffffffffffffffffffffff16815260200190815260200160002060008473ffffffffffffffffffffffffffffffffffffffff1673ffffffffffffffffffffffffffffffffffffffff16815260200190815260200160002060006101000a81548160ff0219169083151502179055508173ffffffffffffffffffffffffffffffffffffffff168373ffffffffffffffffffffffffffffffffffffffff167f17307eab39ab6107e8899845ad3d59bd9653f200f220920489ca2b5937696c31836040516120a89190612616565b60405180910390a3505050565b6120c0848484611bb0565b6120cc84848484612206565b61210b576040517f08c379a000000000000000000000000000000000000000000000000000000000815260040161210290613e5a565b60405180910390fd5b50505050565b606060405180602001604052806000815250905090565b6060612133826116b3565b600061213d612111565b9050600081511161215d5760405180602001604052806000815250612188565b806121678461238d565b604051602001612178929190613998565b6040516020818303038152906040525b915050919050565b60008073ffffffffffffffffffffffffffffffffffffffff166004600084815260200190815260200160002060009054906101000a900473ffffffffffffffffffffffffffffffffffffffff1673ffffffffffffffffffffffffffffffffffffffff1614159050919050565b505050565b505050565b60006122278473ffffffffffffffffffffffffffffffffffffffff166124ed565b15612380578373ffffffffffffffffffffffffffffffffffffffff1663150b7a026122506116fe565b8786866040518563ffffffff1660e01b81526004016122729493929190613ecf565b6020604051808303816000875af19250505080156122ae57506040513d601f19601f820116820180604052508101906122ab9190613f30565b60015b612330573d80600081146122de576040519150601f19603f3d011682016040523d82523d6000602084013e6122e3565b606091505b506000815103612328576040517f08c379a000000000000000000000000000000000000000000000000000000000815260040161231f90613e5a565b60405180910390fd5b805181602001fd5b63150b7a0260e01b7bffffffffffffffffffffffffffffffffffffffffffffffffffffffff1916817bffffffffffffffffffffffffffffffffffffffffffffffffffffffff191614915050612385565b600190505b949350505050565b6060600082036123d4576040518060400160405280600181526020017f300000000000000000000000000000000000000000000000000000000000000081525090506124e8565b600082905060005b600082146124065780806123ef90613921565b915050600a826123ff9190613f8c565b91506123dc565b60008167ffffffffffffffff81111561242257612421612818565b5b6040519080825280601f01601f1916602001820160405280156124545781602001600182028036833780820191505090505b5090505b600085146124e15760018261246d9190613d48565b9150600a8561247c9190613fbd565b603061248891906138ed565b60f81b81838151811061249e5761249d613969565b5b60200101907effffffffffffffffffffffffffffffffffffffffffffffffffffffffffffff1916908160001a905350600a856124da9190613f8c565b9450612458565b8093505050505b919050565b6000808273ffffffffffffffffffffffffffffffffffffffff163b119050919050565b6040518060800160405280600081526020016000801916815260200160008019168152602001600081525090565b60405180606001604052806000815260200160008019168152602001606081525090565b6000604051905090565b600080fd5b600080fd5b60007fffffffff0000000000000000000000000000000000000000000000000000000082169050919050565b6125ab81612576565b81146125b657600080fd5b50565b6000813590506125c8816125a2565b92915050565b6000602082840312156125e4576125e361256c565b5b60006125f2848285016125b9565b91505092915050565b60008115159050919050565b612610816125fb565b82525050565b600060208201905061262b6000830184612607565b92915050565b600081519050919050565b600082825260208201905092915050565b60005b8381101561266b578082015181840152602081019050612650565b60008484015250505050565b6000601f19601f8301169050919050565b600061269382612631565b61269d818561263c565b93506126ad81856020860161264d565b6126b681612677565b840191505092915050565b600060208201905081810360008301526126db8184612688565b905092915050565b6000819050919050565b6126f6816126e3565b811461270157600080fd5b50565b600081359050612713816126ed565b92915050565b60006020828403121561272f5761272e61256c565b5b600061273d84828501612704565b91505092915050565b600073ffffffffffffffffffffffffffffffffffffffff82169050919050565b600061277182612746565b9050919050565b61278181612766565b82525050565b600060208201905061279c6000830184612778565b92915050565b6127ab81612766565b81146127b657600080fd5b50565b6000813590506127c8816127a2565b92915050565b600080604083850312156127e5576127e461256c565b5b60006127f3858286016127b9565b925050602061280485828601612704565b9150509250929050565b600080fd5b600080fd5b7f4e487b7100000000000000000000000000000000000000000000000000000000600052604160045260246000fd5b61285082612677565b810181811067ffffffffffffffff8211171561286f5761286e612818565b5b80604052505050565b6000612882612562565b905061288e8282612847565b919050565b600067ffffffffffffffff8211156128ae576128ad612818565b5b6128b782612677565b9050602081019050919050565b82818337600083830152505050565b60006128e66128e184612893565b612878565b90508281526020810184848401111561290257612901612813565b5b61290d8482856128c4565b509392505050565b600082601f83011261292a5761292961280e565b5b813561293a8482602086016128d3565b91505092915050565b6000819050919050565b61295681612943565b811461296157600080fd5b50565b6000813590506129738161294d565b92915050565b600080604083850312156129905761298f61256c565b5b600083013567ffffffffffffffff8111156129ae576129ad612571565b5b6129ba85828601612915565b92505060206129cb85828601612964565b9150509250929050565b6129de81612943565b82525050565b60006020820190506129f960008301846129d5565b92915050565b600060208284031215612a1557612a1461256c565b5b600082013567ffffffffffffffff811115612a3357612a32612571565b5b612a3f84828501612915565b91505092915050565b600080600060608486031215612a6157612a6061256c565b5b6000612a6f868287016127b9565b9350506020612a80868287016127b9565b9250506040612a9186828701612704565b9150509250925092565b60008060408385031215612ab257612ab161256c565b5b6000612ac085828601612964565b9250506020612ad185828601612964565b9150509250929050565b600060208284031215612af157612af061256c565b5b6000612aff848285016127b9565b91505092915050565b612b11816126e3565b82525050565b6000602082019050612b2c6000830184612b08565b92915050565b600060208284031215612b4857612b4761256c565b5b6000612b5684828501612964565b91505092915050565b612b68816126e3565b82525050565b612b7781612943565b82525050565b608082016000820151612b936000850182612b5f565b506020820151612ba66020850182612b6e565b506040820151612bb96040850182612b6e565b506060820151612bcc6060850182612b5f565b50505050565b6000608082019050612be76000830184612b7d565b92915050565b600081519050919050565b600082825260208201905092915050565b6000819050602082019050919050565b608082016000820151612c2f6000850182612b5f565b506020820151612c426020850182612b6e565b506040820151612c556040850182612b6e565b506060820151612c686060850182612b5f565b50505050565b6000612c7a8383612c19565b60808301905092915050565b6000602082019050919050565b6000612c9e82612bed565b612ca88185612bf8565b9350612cb383612c09565b8060005b83811015612ce4578151612ccb8882612c6e565b9750612cd683612c86565b925050600181019050612cb7565b5085935050505092915050565b60006020820190508181036000830152612d0b8184612c93565b905092915050565b612d1c816125fb565b8114612d2757600080fd5b50565b600081359050612d3981612d13565b92915050565b60008060408385031215612d5657612d5561256c565b5b6000612d64858286016127b9565b9250506020612d7585828601612d2a565b9150509250929050565b600067ffffffffffffffff821115612d9a57612d99612818565b5b612da382612677565b9050602081019050919050565b6000612dc3612dbe84612d7f565b612878565b905082815260208101848484011115612ddf57612dde612813565b5b612dea8482856128c4565b509392505050565b600082601f830112612e0757612e0661280e565b5b8135612e17848260208601612db0565b91505092915050565b60008060008060808587031215612e3a57612e3961256c565b5b6000612e48878288016127b9565b9450506020612e59878288016127b9565b9350506040612e6a87828801612704565b925050606085013567ffffffffffffffff811115612e8b57612e8a612571565b5b612e9787828801612df2565b91505092959194509250565b600081519050919050565b600082825260208201905092915050565b6000819050602082019050919050565b600082825260208201905092915050565b6000612eeb82612631565b612ef58185612ecf565b9350612f0581856020860161264d565b612f0e81612677565b840191505092915050565b6000606083016000830151612f316000860182612b5f565b506020830151612f446020860182612b6e565b5060408301518482036040860152612f5c8282612ee0565b9150508091505092915050565b6000612f758383612f19565b905092915050565b6000602082019050919050565b6000612f9582612ea3565b612f9f8185612eae565b935083602082028501612fb185612ebf565b8060005b85811015612fed5784840389528151612fce8582612f69565b9450612fd983612f7d565b925060208a01995050600181019050612fb5565b50829750879550505050505092915050565b600060208201905081810360008301526130198184612f8a565b905092915050565b600080604083850312156130385761303761256c565b5b6000613046858286016127b9565b9250506020613057858286016127b9565b9150509250929050565b7f4e487b7100000000000000000000000000000000000000000000000000000000600052602260045260246000fd5b600060028204905060018216806130a857607f821691505b6020821081036130bb576130ba613061565b5b50919050565b7f4552433732313a20617070726f76616c20746f2063757272656e74206f776e6560008201527f7200000000000000000000000000000000000000000000000000000000000000602082015250565b600061311d60218361263c565b9150613128826130c1565b604082019050919050565b6000602082019050818103600083015261314c81613110565b9050919050565b7f4552433732313a20617070726f76652063616c6c6572206973206e6f7420746f60008201527f6b656e206f776e6572206e6f7220617070726f76656420666f7220616c6c0000602082015250565b60006131af603e8361263c565b91506131ba82613153565b604082019050919050565b600060208201905081810360008301526131de816131a2565b9050919050565b7f5265656e7472616e637947756172643a207265656e7472616e742063616c6c00600082015250565b600061321b601f8361263c565b9150613226826131e5565b602082019050919050565b6000602082019050818103600083015261324a8161320e565b9050919050565b7f546869732075736572494420697320696e76616c696400000000000000000000600082015250565b600061328760168361263c565b915061329282613251565b602082019050919050565b600060208201905081810360008301526132b68161327a565b9050919050565b6000819050919050565b6132d86132d3826126e3565b6132bd565b82525050565b600081905092915050565b60006132f482612631565b6132fe81856132de565b935061330e81856020860161264d565b80840191505092915050565b6000819050919050565b61333561333082612943565b61331a565b82525050565b600061334782876132c7565b60208201915061335782866132e9565b915061336382856132c7565b6020820191506133738284613324565b60208201915081905095945050505050565b600060608201905061339a6000830186612b08565b6133a760208301856129d5565b6133b46040830184612b08565b949350505050565b60006133c882876132e9565b91506133d482866132c7565b6020820191506133e482856132c7565b6020820191506133f482846132c7565b60208201915081905095945050505050565b60008190508160005260206000209050919050565b60006020601f8301049050919050565b600082821b905092915050565b6000600883026134687fffffffffffffffffffffffffffffffffffffffffffffffffffffffffffffffff8261342b565b613472868361342b565b95508019841693508086168417925050509392505050565b6000819050919050565b60006134af6134aa6134a5846126e3565b61348a565b6126e3565b9050919050565b6000819050919050565b6134c983613494565b6134dd6134d5826134b6565b848454613438565b825550505050565b600090565b6134f26134e5565b6134fd8184846134c0565b505050565b5b81811015613521576135166000826134ea565b600181019050613503565b5050565b601f8211156135665761353781613406565b6135408461341b565b8101602085101561354f578190505b61356361355b8561341b565b830182613502565b50505b505050565b600082821c905092915050565b60006135896000198460080261356b565b1980831691505092915050565b60006135a28383613578565b9150826002028217905092915050565b6135bb82612631565b67ffffffffffffffff8111156135d4576135d3612818565b5b6135de8254613090565b6135e9828285613525565b600060209050601f83116001811461361c576000841561360a578287015190505b6136148582613596565b86555061367c565b601f19841661362a86613406565b60005b828110156136525784890151825560018201915060208501945060208101905061362d565b8683101561366f578489015161366b601f891682613578565b8355505b6001600288020188555050505b505050505050565b60006060820190506136996000830186612b08565b81810360208301526136ab8185612688565b90506136ba6040830184612b08565b949350505050565b7f4552433732313a2063616c6c6572206973206e6f7420746f6b656e206f776e6560008201527f72206e6f7220617070726f766564000000000000000000000000000000000000602082015250565b600061371e602e8361263c565b9150613729826136c2565b604082019050919050565b6000602082019050818103600083015261374d81613711565b9050919050565b7f4552433732313a20696e76616c696420746f6b656e2049440000000000000000600082015250565b600061378a60188361263c565b915061379582613754565b602082019050919050565b600060208201905081810360008301526137b98161377d565b9050919050565b7f5468697320494320697320696e76616c69640000000000000000000000000000600082015250565b60006137f660128361263c565b9150613801826137c0565b602082019050919050565b60006020820190508181036000830152613825816137e9565b9050919050565b7f4552433732313a2061646472657373207a65726f206973206e6f74206120766160008201527f6c6964206f776e65720000000000000000000000000000000000000000000000602082015250565b600061388860298361263c565b91506138938261382c565b604082019050919050565b600060208201905081810360008301526138b78161387b565b9050919050565b7f4e487b7100000000000000000000000000000000000000000000000000000000600052601160045260246000fd5b60006138f8826126e3565b9150613903836126e3565b925082820190508082111561391b5761391a6138be565b5b92915050565b600061392c826126e3565b91507fffffffffffffffffffffffffffffffffffffffffffffffffffffffffffffffff820361395e5761395d6138be565b5b600182019050919050565b7f4e487b7100000000000000000000000000000000000000000000000000000000600052603260045260246000fd5b60006139a482856132e9565b91506139b082846132e9565b91508190509392505050565b7f4f776e61626c653a206e6577206f776e657220697320746865207a65726f206160008201527f6464726573730000000000000000000000000000000000000000000000000000602082015250565b6000613a1860268361263c565b9150613a23826139bc565b604082019050919050565b60006020820190508181036000830152613a4781613a0b565b9050919050565b7f4f776e61626c653a2063616c6c6572206973206e6f7420746865206f776e6572600082015250565b6000613a8460208361263c565b9150613a8f82613a4e565b602082019050919050565b60006020820190508181036000830152613ab381613a77565b9050919050565b7f4552433732313a206d696e7420746f20746865207a65726f2061646472657373600082015250565b6000613af060208361263c565b9150613afb82613aba565b602082019050919050565b60006020820190508181036000830152613b1f81613ae3565b9050919050565b7f4552433732313a20746f6b656e20616c7265616479206d696e74656400000000600082015250565b6000613b5c601c8361263c565b9150613b6782613b26565b602082019050919050565b60006020820190508181036000830152613b8b81613b4f565b9050919050565b7f45524337323155524953746f726167653a2055524920736574206f66206e6f6e60008201527f6578697374656e7420746f6b656e000000000000000000000000000000000000602082015250565b6000613bee602e8361263c565b9150613bf982613b92565b604082019050919050565b60006020820190508181036000830152613c1d81613be1565b9050919050565b7f4552433732313a207472616e736665722066726f6d20696e636f72726563742060008201527f6f776e6572000000000000000000000000000000000000000000000000000000602082015250565b6000613c8060258361263c565b9150613c8b82613c24565b604082019050919050565b60006020820190508181036000830152613caf81613c73565b9050919050565b7f4552433732313a207472616e7366657220746f20746865207a65726f2061646460008201527f7265737300000000000000000000000000000000000000000000000000000000602082015250565b6000613d1260248361263c565b9150613d1d82613cb6565b604082019050919050565b60006020820190508181036000830152613d4181613d05565b9050919050565b6000613d53826126e3565b9150613d5e836126e3565b9250828203905081811115613d7657613d756138be565b5b92915050565b7f4552433732313a20617070726f766520746f2063616c6c657200000000000000600082015250565b6000613db260198361263c565b9150613dbd82613d7c565b602082019050919050565b60006020820190508181036000830152613de181613da5565b9050919050565b7f4552433732313a207472616e7366657220746f206e6f6e20455243373231526560008201527f63656976657220696d706c656d656e7465720000000000000000000000000000602082015250565b6000613e4460328361263c565b9150613e4f82613de8565b604082019050919050565b60006020820190508181036000830152613e7381613e37565b9050919050565b600081519050919050565b600082825260208201905092915050565b6000613ea182613e7a565b613eab8185613e85565b9350613ebb81856020860161264d565b613ec481612677565b840191505092915050565b6000608082019050613ee46000830187612778565b613ef16020830186612778565b613efe6040830185612b08565b8181036060830152613f108184613e96565b905095945050505050565b600081519050613f2a816125a2565b92915050565b600060208284031215613f4657613f4561256c565b5b6000613f5484828501613f1b565b91505092915050565b7f4e487b7100000000000000000000000000000000000000000000000000000000600052601260045260246000fd5b6000613f97826126e3565b9150613fa2836126e3565b925082613fb257613fb1613f5d565b5b828204905092915050565b6000613fc8826126e3565b9150613fd3836126e3565b925082613fe357613fe2613f5d565b5b82820690509291505056fea26469706673582212200ccc1796d22770bd70346f99598da2e48a4ce737c32fdeabc93fb9b5e0a32c7b64736f6c63430008110033",
  "linkReferences": {},
  "deployedLinkReferences": {}
}