{
  "_format": "hh-sol-artifact-1",
  "contractName": "VTAdmin",
  "sourceName": "contracts/VTAdmin.sol",
  "abi": [
    {
      "inputs": [
        {
          "internalType": "uint256",
          "name": "_secretNum",
          "type": "uint256"
        }
      ],
      "stateMutability": "nonpayable",
      "type": "constructor"
    },
    {
      "anonymous": false,
      "inputs": [
        {
          "indexed": false,
          "internalType": "uint256",
          "name": "userNum",
          "type": "uint256"
        },
        {
          "indexed": true,
          "internalType": "bytes32",
          "name": "userId",
          "type": "bytes32"
        },
        {
          "indexed": false,
          "internalType": "string",
          "name": "name",
          "type": "string"
        },
        {
          "indexed": false,
          "internalType": "uint256",
          "name": "addedTime",
          "type": "uint256"
        }
      ],
      "name": "AddedUser",
      "type": "event"
    },
    {
      "anonymous": false,
      "inputs": [
        {
          "indexed": true,
          "internalType": "address",
          "name": "owner",
          "type": "address"
        },
        {
          "indexed": true,
          "internalType": "address",
          "name": "approved",
          "type": "address"
        },
        {
          "indexed": true,
          "internalType": "uint256",
          "name": "tokenId",
          "type": "uint256"
        }
      ],
      "name": "Approval",
      "type": "event"
    },
    {
      "anonymous": false,
      "inputs": [
        {
          "indexed": true,
          "internalType": "address",
          "name": "owner",
          "type": "address"
        },
        {
          "indexed": true,
          "internalType": "address",
          "name": "operator",
          "type": "address"
        },
        {
          "indexed": false,
          "internalType": "bool",
          "name": "approved",
          "type": "bool"
        }
      ],
      "name": "ApprovalForAll",
      "type": "event"
    },
    {
      "anonymous": false,
      "inputs": [
        {
          "indexed": false,
          "internalType": "uint256",
          "name": "tokenId",
          "type": "uint256"
        },
        {
          "indexed": false,
          "internalType": "bytes32",
          "name": "ic",
          "type": "bytes32"
        },
        {
          "indexed": false,
          "internalType": "uint256",
          "name": "createdTime",
          "type": "uint256"
        }
      ],
      "name": "CreateToken",
      "type": "event"
    },
    {
      "anonymous": false,
      "inputs": [
        {
          "indexed": true,
          "internalType": "address",
          "name": "previousOwner",
          "type": "address"
        },
        {
          "indexed": true,
          "internalType": "address",
          "name": "newOwner",
          "type": "address"
        }
      ],
      "name": "OwnershipTransferred",
      "type": "event"
    },
    {
      "anonymous": false,
      "inputs": [
        {
          "indexed": false,
          "internalType": "uint256",
          "name": "tokenId",
          "type": "uint256"
        },
        {
          "indexed": true,
          "internalType": "bytes32",
          "name": "ic",
          "type": "bytes32"
        },
        {
          "indexed": false,
          "internalType": "bytes32",
          "name": "currentOwnerId",
          "type": "bytes32"
        },
        {
          "indexed": false,
          "internalType": "uint256",
          "name": "txTime",
          "type": "uint256"
        }
      ],
      "name": "Transaction",
      "type": "event"
    },
    {
      "anonymous": false,
      "inputs": [
        {
          "indexed": true,
          "internalType": "address",
          "name": "from",
          "type": "address"
        },
        {
          "indexed": true,
          "internalType": "address",
          "name": "to",
          "type": "address"
        },
        {
          "indexed": true,
          "internalType": "uint256",
          "name": "tokenId",
          "type": "uint256"
        }
      ],
      "name": "Transfer",
      "type": "event"
    },
    {
      "inputs": [
        {
          "internalType": "string",
          "name": "_name",
          "type": "string"
        }
      ],
      "name": "addUser",
      "outputs": [
        {
          "internalType": "bytes32",
          "name": "",
          "type": "bytes32"
        }
      ],
      "stateMutability": "nonpayable",
      "type": "function"
    },
    {
      "inputs": [
        {
          "internalType": "address",
          "name": "to",
          "type": "address"
        },
        {
          "internalType": "uint256",
          "name": "tokenId",
          "type": "uint256"
        }
      ],
      "name": "approve",
      "outputs": [],
      "stateMutability": "nonpayable",
      "type": "function"
    },
    {
      "inputs": [
        {
          "internalType": "address",
          "name": "owner",
          "type": "address"
        }
      ],
      "name": "balanceOf",
      "outputs": [
        {
          "internalType": "uint256",
          "name": "",
          "type": "uint256"
        }
      ],
      "stateMutability": "view",
      "type": "function"
    },
    {
      "inputs": [
        {
          "internalType": "bytes32",
          "name": "_ic",
          "type": "bytes32"
        },
        {
          "internalType": "bytes32",
          "name": "_id",
          "type": "bytes32"
        }
      ],
      "name": "changeOwner",
      "outputs": [],
      "stateMutability": "nonpayable",
      "type": "function"
    },
    {
      "inputs": [
        {
          "internalType": "string",
          "name": "_tokenURI",
          "type": "string"
        },
        {
          "internalType": "bytes32",
          "name": "_id",
          "type": "bytes32"
        }
      ],
      "name": "createToken",
      "outputs": [
        {
          "internalType": "bytes32",
          "name": "",
          "type": "bytes32"
        }
      ],
      "stateMutability": "nonpayable",
      "type": "function"
    },
    {
      "inputs": [],
      "name": "fetchAllItems",
      "outputs": [
        {
          "components": [
            {
              "internalType": "uint256",
              "name": "tokenId",
              "type": "uint256"
            },
            {
              "internalType": "bytes32",
              "name": "ic",
              "type": "bytes32"
            },
            {
              "internalType": "bytes32",
              "name": "ownerId",
              "type": "bytes32"
            },
            {
              "internalType": "uint256",
              "name": "txTime",
              "type": "uint256"
            }
          ],
          "internalType": "struct VTAdmin.Item[]",
          "name": "",
          "type": "tuple[]"
        }
      ],
      "stateMutability": "view",
      "type": "function"
    },
    {
      "inputs": [],
      "name": "fetchAllUsers",
      "outputs": [
        {
          "components": [
            {
              "internalType": "uint256",
              "name": "userNum",
              "type": "uint256"
            },
            {
              "internalType": "bytes32",
              "name": "userId",
              "type": "bytes32"
            },
            {
              "internalType": "string",
              "name": "name",
              "type": "string"
            }
          ],
          "internalType": "struct VTAdmin.User[]",
          "name": "",
          "type": "tuple[]"
        }
      ],
      "stateMutability": "view",
      "type": "function"
    },
    {
      "inputs": [
        {
          "internalType": "bytes32",
          "name": "_ic",
          "type": "bytes32"
        }
      ],
      "name": "fetchItemByIC",
      "outputs": [
        {
          "components": [
            {
              "internalType": "uint256",
              "name": "tokenId",
              "type": "uint256"
            },
            {
              "internalType": "bytes32",
              "name": "ic",
              "type": "bytes32"
            },
            {
              "internalType": "bytes32",
              "name": "ownerId",
              "type": "bytes32"
            },
            {
              "internalType": "uint256",
              "name": "txTime",
              "type": "uint256"
            }
          ],
          "internalType": "struct VTAdmin.Item",
          "name": "",
          "type": "tuple"
        }
      ],
      "stateMutability": "view",
      "type": "function"
    },
    {
      "inputs": [
        {
          "internalType": "bytes32",
          "name": "_id",
          "type": "bytes32"
        }
      ],
      "name": "fetchItemsById",
      "outputs": [
        {
          "components": [
            {
              "internalType": "uint256",
              "name": "tokenId",
              "type": "uint256"
            },
            {
              "internalType": "bytes32",
              "name": "ic",
              "type": "bytes32"
            },
            {
              "internalType": "bytes32",
              "name": "ownerId",
              "type": "bytes32"
            },
            {
              "internalType": "uint256",
              "name": "txTime",
              "type": "uint256"
            }
          ],
          "internalType": "struct VTAdmin.Item[]",
          "name": "",
          "type": "tuple[]"
        }
      ],
      "stateMutability": "view",
      "type": "function"
    },
    {
      "inputs": [
        {
          "internalType": "bytes32",
          "name": "_id",
          "type": "bytes32"
        }
      ],
      "name": "fetchUserById",
      "outputs": [
        {
          "components": [
            {
              "internalType": "uint256",
              "name": "userNum",
              "type": "uint256"
            },
            {
              "internalType": "bytes32",
              "name": "userId",
              "type": "bytes32"
            },
            {
              "internalType": "string",
              "name": "name",
              "type": "string"
            }
          ],
          "internalType": "struct VTAdmin.User",
          "name": "",
          "type": "tuple"
        }
      ],
      "stateMutability": "view",
      "type": "function"
    },
    {
      "inputs": [
        {
          "internalType": "uint256",
          "name": "tokenId",
          "type": "uint256"
        }
      ],
      "name": "getApproved",
      "outputs": [
        {
          "internalType": "address",
          "name": "",
          "type": "address"
        }
      ],
      "stateMutability": "view",
      "type": "function"
    },
    {
      "inputs": [
        {
          "internalType": "address",
          "name": "owner",
          "type": "address"
        },
        {
          "internalType": "address",
          "name": "operator",
          "type": "address"
        }
      ],
      "name": "isApprovedForAll",
      "outputs": [
        {
          "internalType": "bool",
          "name": "",
          "type": "bool"
        }
      ],
      "stateMutability": "view",
      "type": "function"
    },
    {
      "inputs": [],
      "name": "name",
      "outputs": [
        {
          "internalType": "string",
          "name": "",
          "type": "string"
        }
      ],
      "stateMutability": "view",
      "type": "function"
    },
    {
      "inputs": [],
      "name": "owner",
      "outputs": [
        {
          "internalType": "address",
          "name": "",
          "type": "address"
        }
      ],
      "stateMutability": "view",
      "type": "function"
    },
    {
      "inputs": [
        {
          "internalType": "uint256",
          "name": "tokenId",
          "type": "uint256"
        }
      ],
      "name": "ownerOf",
      "outputs": [
        {
          "internalType": "address",
          "name": "",
          "type": "address"
        }
      ],
      "stateMutability": "view",
      "type": "function"
    },
    {
      "inputs": [],
      "name": "renounceOwnership",
      "outputs": [],
      "stateMutability": "nonpayable",
      "type": "function"
    },
    {
      "inputs": [
        {
          "internalType": "address",
          "name": "from",
          "type": "address"
        },
        {
          "internalType": "address",
          "name": "to",
          "type": "address"
        },
        {
          "internalType": "uint256",
          "name": "tokenId",
          "type": "uint256"
        }
      ],
      "name": "safeTransferFrom",
      "outputs": [],
      "stateMutability": "nonpayable",
      "type": "function"
    },
    {
      "inputs": [
        {
          "internalType": "address",
          "name": "from",
          "type": "address"
        },
        {
          "internalType": "address",
          "name": "to",
          "type": "address"
        },
        {
          "internalType": "uint256",
          "name": "tokenId",
          "type": "uint256"
        },
        {
          "internalType": "bytes",
          "name": "data",
          "type": "bytes"
        }
      ],
      "name": "safeTransferFrom",
      "outputs": [],
      "stateMutability": "nonpayable",
      "type": "function"
    },
    {
      "inputs": [
        {
          "internalType": "address",
          "name": "operator",
          "type": "address"
        },
        {
          "internalType": "bool",
          "name": "approved",
          "type": "bool"
        }
      ],
      "name": "setApprovalForAll",
      "outputs": [],
      "stateMutability": "nonpayable",
      "type": "function"
    },
    {
      "inputs": [
        {
          "internalType": "bytes4",
          "name": "interfaceId",
          "type": "bytes4"
        }
      ],
      "name": "supportsInterface",
      "outputs": [
        {
          "internalType": "bool",
          "name": "",
          "type": "bool"
        }
      ],
      "stateMutability": "view",
      "type": "function"
    },
    {
      "inputs": [],
      "name": "symbol",
      "outputs": [
        {
          "internalType": "string",
          "name": "",
          "type": "string"
        }
      ],
      "stateMutability": "view",
      "type": "function"
    },
    {
      "inputs": [
        {
          "internalType": "uint256",
          "name": "tokenId",
          "type": "uint256"
        }
      ],
      "name": "tokenURI",
      "outputs": [
        {
          "internalType": "string",
          "name": "",
          "type": "string"
        }
      ],
      "stateMutability": "view",
      "type": "function"
    },
    {
      "inputs": [
        {
          "internalType": "address",
          "name": "from",
          "type": "address"
        },
        {
          "internalType": "address",
          "name": "to",
          "type": "address"
        },
        {
          "internalType": "uint256",
          "name": "tokenId",
          "type": "uint256"
        }
      ],
      "name": "transferFrom",
      "outputs": [],
      "stateMutability": "nonpayable",
      "type": "function"
    },
    {
      "inputs": [
        {
          "internalType": "address",
          "name": "newOwner",
          "type": "address"
        }
      ],
      "name": "transferOwnership",
      "outputs": [],
      "stateMutability": "nonpayable",
      "type": "function"
    }
  ],
  "bytecode": "0x60806040523480156200001157600080fd5b50604051620047fd380380620047fd83398181016040528101906200003791906200020d565b6040518060400160405280600f81526020017f56616c6c6579696e20546f6b656e7300000000000000000000000000000000008152506040518060400160405280600281526020017f56540000000000000000000000000000000000000000000000000000000000008152506001600081905550620000cb620000bf620000ff60201b60201c565b6200010760201b60201c565b8160029081620000dc9190620004af565b508060039081620000ee9190620004af565b50505080600b819055505062000596565b600033905090565b6000600160009054906101000a900473ffffffffffffffffffffffffffffffffffffffff16905081600160006101000a81548173ffffffffffffffffffffffffffffffffffffffff021916908373ffffffffffffffffffffffffffffffffffffffff1602179055508173ffffffffffffffffffffffffffffffffffffffff168173ffffffffffffffffffffffffffffffffffffffff167f8be0079c531659141344cd1fd0a4f28419497f9722a3daafe3b4186f6b6457e060405160405180910390a35050565b600080fd5b6000819050919050565b620001e781620001d2565b8114620001f357600080fd5b50565b6000815190506200020781620001dc565b92915050565b600060208284031215620002265762000225620001cd565b5b60006200023684828501620001f6565b91505092915050565b600081519050919050565b7f4e487b7100000000000000000000000000000000000000000000000000000000600052604160045260246000fd5b7f4e487b7100000000000000000000000000000000000000000000000000000000600052602260045260246000fd5b60006002820490506001821680620002c157607f821691505b602082108103620002d757620002d662000279565b5b50919050565b60008190508160005260206000209050919050565b60006020601f8301049050919050565b600082821b905092915050565b600060088302620003417fffffffffffffffffffffffffffffffffffffffffffffffffffffffffffffffff8262000302565b6200034d868362000302565b95508019841693508086168417925050509392505050565b6000819050919050565b6000620003906200038a6200038484620001d2565b62000365565b620001d2565b9050919050565b6000819050919050565b620003ac836200036f565b620003c4620003bb8262000397565b8484546200030f565b825550505050565b600090565b620003db620003cc565b620003e8818484620003a1565b505050565b5b81811015620004105762000404600082620003d1565b600181019050620003ee565b5050565b601f8211156200045f576200042981620002dd565b6200043484620002f2565b8101602085101562000444578190505b6200045c6200045385620002f2565b830182620003ed565b50505b505050565b600082821c905092915050565b6000620004846000198460080262000464565b1980831691505092915050565b60006200049f838362000471565b9150826002028217905092915050565b620004ba826200023f565b67ffffffffffffffff811115620004d657620004d56200024a565b5b620004e28254620002a8565b620004ef82828562000414565b600060209050601f83116001811462000527576000841562000512578287015190505b6200051e858262000491565b8655506200058e565b601f1984166200053786620002dd565b60005b8281101562000561578489015182556001820191506020850194506020810190506200053a565b868310156200058157848901516200057d601f89168262000471565b8355505b6001600288020188555050505b505050505050565b61425780620005a66000396000f3fe608060405234801561001057600080fd5b50600436106101585760003560e01c80637a67c73e116100c3578063c33743151161007c578063c3374315146103d7578063c87b56dd146103f5578063c981979614610425578063e985e9c514610455578063f2fde38b14610485578063fad51be1146104a157610158565b80637a67c73e146103155780638da5cb5b1461034557806395d89b411461036357806397598cc314610381578063a22cb4651461039f578063b88d4fde146103bb57610158565b806323b872dd1161011557806323b872dd1461025757806342842e0e146102735780636352211e1461028f5780636487d6fb146102bf57806370a08231146102db578063715018a61461030b57610158565b806301ffc9a71461015d57806306fdde031461018d578063081812fc146101ab578063095ea7b3146101db578063127884c7146101f757806318b8275a14610227575b600080fd5b6101776004803603810190610172919061278f565b6104d1565b60405161018491906127d7565b60405180910390f35b6101956105b3565b6040516101a29190612882565b60405180910390f35b6101c560048036038101906101c091906128da565b610645565b6040516101d29190612948565b60405180910390f35b6101f560048036038101906101f0919061298f565b61068b565b005b610211600480360381019061020c9190612b3a565b6107a2565b60405161021e9190612ba5565b60405180910390f35b610241600480360381019061023c9190612bc0565b610989565b60405161024e9190612ba5565b60405180910390f35b610271600480360381019061026c9190612c09565b610ada565b005b61028d60048036038101906102889190612c09565b610b3a565b005b6102a960048036038101906102a491906128da565b610b5a565b6040516102b69190612948565b60405180910390f35b6102d960048036038101906102d49190612c5c565b610c0b565b005b6102f560048036038101906102f09190612c9c565b610d34565b6040516103029190612cd8565b60405180910390f35b610313610deb565b005b61032f600480360381019061032a9190612cf3565b610dff565b60405161033c9190612d93565b60405180910390f35b61034d610ebf565b60405161035a9190612948565b60405180910390f35b61036b610ee9565b6040516103789190612882565b60405180910390f35b610389610f7b565b6040516103969190612eb2565b60405180910390f35b6103b960048036038101906103b49190612f00565b611082565b005b6103d560048036038101906103d09190612fe1565b611098565b005b6103df6110fa565b6040516103ec91906131c0565b60405180910390f35b61040f600480360381019061040a91906128da565b61127f565b60405161041c9190612882565b60405180910390f35b61043f600480360381019061043a9190612cf3565b611391565b60405161044c9190612eb2565b60405180910390f35b61046f600480360381019061046a91906131e2565b61156d565b60405161047c91906127d7565b60405180910390f35b61049f600480360381019061049a9190612c9c565b611601565b005b6104bb60048036038101906104b69190612cf3565b611684565b6040516104c89190613272565b60405180910390f35b60007f80ac58cd000000000000000000000000000000000000000000000000000000007bffffffffffffffffffffffffffffffffffffffffffffffffffffffff1916827bffffffffffffffffffffffffffffffffffffffffffffffffffffffff1916148061059c57507f5b5e139f000000000000000000000000000000000000000000000000000000007bffffffffffffffffffffffffffffffffffffffffffffffffffffffff1916827bffffffffffffffffffffffffffffffffffffffffffffffffffffffff1916145b806105ac57506105ab8261180a565b5b9050919050565b6060600280546105c2906132c3565b80601f01602080910402602001604051908101604052809291908181526020018280546105ee906132c3565b801561063b5780601f106106105761010080835404028352916020019161063b565b820191906000526020600020905b81548152906001019060200180831161061e57829003601f168201915b5050505050905090565b600061065082611874565b6006600083815260200190815260200160002060009054906101000a900473ffffffffffffffffffffffffffffffffffffffff169050919050565b600061069682610b5a565b90508073ffffffffffffffffffffffffffffffffffffffff168373ffffffffffffffffffffffffffffffffffffffff1603610706576040517f08c379a00000000000000000000000000000000000000000000000000000000081526004016106fd90613366565b60405180910390fd5b8073ffffffffffffffffffffffffffffffffffffffff166107256118bf565b73ffffffffffffffffffffffffffffffffffffffff16148061075457506107538161074e6118bf565b61156d565b5b610793576040517f08c379a000000000000000000000000000000000000000000000000000000000815260040161078a906133f8565b60405180910390fd5b61079d83836118c7565b505050565b60006107ac611980565b6002600054036107f1576040517f08c379a00000000000000000000000000000000000000000000000000000000081526004016107e890613464565b60405180910390fd5b6002600081905550610802826119fe565b610841576040517f08c379a0000000000000000000000000000000000000000000000000000000008152600401610838906134d0565b60405180910390fd5b61084b6009611a72565b60006108576009611a88565b90506108633082611a96565b61086d8185611c6f565b60004285600b5486604051602001610888949392919061356e565b604051602081830303815290604052805190602001209050604051806080016040528083815260200182815260200185815260200142815250600d6000848152602001908152602001600020600082015181600001556020820151816001015560408201518160020155606082015181600301559050507f7a095b8e75ced5d48496b8e4fa1c432b39e6c353587b7fbecb6d36ffa9164b6f828242604051610932939291906135b8565b60405180910390a1807f851758407aa6e6a4989f0350b594067d78101753d8e039a346d23a23decb5d6a83864260405161096e939291906135b8565b60405180910390a28092505050600160008190555092915050565b6000610993611980565b6002600054036109d8576040517f08c379a00000000000000000000000000000000000000000000000000000000081526004016109cf90613464565b60405180910390fd5b60026000819055506109ea600a611a72565b60006109f6600a611a88565b905060008342600b5484604051602001610a1394939291906135ef565b6040516020818303038152906040528051906020012090506000604051806060016040528084815260200183815260200186815250905080600c600085815260200190815260200160002060008201518160000155602082015181600101556040820151816002019081610a8791906137e5565b50905050817f522382c6e61994742de6c20ee7fd137329c7e818def9dae2ba2208dd7adda608848742604051610abf939291906138b7565b60405180910390a28193505050506001600081905550919050565b610aeb610ae56118bf565b82611cdc565b610b2a576040517f08c379a0000000000000000000000000000000000000000000000000000000008152600401610b2190613967565b60405180910390fd5b610b35838383611d71565b505050565b610b5583838360405180602001604052806000815250611098565b505050565b6000806004600084815260200190815260200160002060009054906101000a900473ffffffffffffffffffffffffffffffffffffffff169050600073ffffffffffffffffffffffffffffffffffffffff168173ffffffffffffffffffffffffffffffffffffffff1603610c02576040517f08c379a0000000000000000000000000000000000000000000000000000000008152600401610bf9906139d3565b60405180910390fd5b80915050919050565b610c13611980565b610c1c816119fe565b610c5b576040517f08c379a0000000000000000000000000000000000000000000000000000000008152600401610c52906134d0565b60405180910390fd5b610c6482611fd7565b610ca3576040517f08c379a0000000000000000000000000000000000000000000000000000000008152600401610c9a90613a3f565b60405180910390fd5b6000610cae83610dff565b905081600d600083600001518152602001908152602001600020600201819055506000600d600083600001518152602001908152602001600020905080600101547f851758407aa6e6a4989f0350b594067d78101753d8e039a346d23a23decb5d6a82600001548542604051610d26939291906135b8565b60405180910390a250505050565b60008073ffffffffffffffffffffffffffffffffffffffff168273ffffffffffffffffffffffffffffffffffffffff1603610da4576040517f08c379a0000000000000000000000000000000000000000000000000000000008152600401610d9b90613ad1565b60405180910390fd5b600560008373ffffffffffffffffffffffffffffffffffffffff1673ffffffffffffffffffffffffffffffffffffffff168152602001908152602001600020549050919050565b610df3611980565b610dfd6000612044565b565b610e076126d1565b6000610e136009611a88565b905060005b81811015610eb75783600d6000600184610e329190613b20565b81526020019081526020016000206001015403610ea457600d6000600183610e5a9190613b20565b815260200190815260200160002060405180608001604052908160008201548152602001600182015481526020016002820154815260200160038201548152505092505050610eba565b8080610eaf90613b54565b915050610e18565b50505b919050565b6000600160009054906101000a900473ffffffffffffffffffffffffffffffffffffffff16905090565b606060038054610ef8906132c3565b80601f0160208091040260200160405190810160405280929190818152602001828054610f24906132c3565b8015610f715780601f10610f4657610100808354040283529160200191610f71565b820191906000526020600020905b815481529060010190602001808311610f5457829003601f168201915b5050505050905090565b6060610f85611980565b6000610f916009611a88565b905060008167ffffffffffffffff811115610faf57610fae6129d9565b5b604051908082528060200260200182016040528015610fe857816020015b610fd56126d1565b815260200190600190039081610fcd5790505b50905060005b8281101561107957600d60006001836110079190613b20565b815260200190815260200160002060405180608001604052908160008201548152602001600182015481526020016002820154815260200160038201548152505082828151811061105b5761105a613b9c565b5b6020026020010181905250808061107190613b54565b915050610fee565b50809250505090565b61109461108d6118bf565b838361210a565b5050565b6110a96110a36118bf565b83611cdc565b6110e8576040517f08c379a00000000000000000000000000000000000000000000000000000000081526004016110df90613967565b60405180910390fd5b6110f484848484612276565b50505050565b6060611104611980565b6000611110600a611a88565b905060008167ffffffffffffffff81111561112e5761112d6129d9565b5b60405190808252806020026020018201604052801561116757816020015b6111546126ff565b81526020019060019003908161114c5790505b50905060005b8281101561127657600c60006001836111869190613b20565b815260200190815260200160002060405180606001604052908160008201548152602001600182015481526020016002820180546111c3906132c3565b80601f01602080910402602001604051908101604052809291908181526020018280546111ef906132c3565b801561123c5780601f106112115761010080835404028352916020019161123c565b820191906000526020600020905b81548152906001019060200180831161121f57829003601f168201915b50505050508152505082828151811061125857611257613b9c565b5b6020026020010181905250808061126e90613b54565b91505061116d565b50809250505090565b606061128a82611874565b60006008600084815260200190815260200160002080546112aa906132c3565b80601f01602080910402602001604051908101604052809291908181526020018280546112d6906132c3565b80156113235780601f106112f857610100808354040283529160200191611323565b820191906000526020600020905b81548152906001019060200180831161130657829003601f168201915b5050505050905060006113346122d2565b9050600081510361134957819250505061138c565b60008251111561137e578082604051602001611366929190613bcb565b6040516020818303038152906040529250505061138c565b611387846122e9565b925050505b919050565b606061139c826119fe565b6113db576040517f08c379a00000000000000000000000000000000000000000000000000000000081526004016113d2906134d0565b60405180910390fd5b60006113e76009611a88565b90506000805b828110156114405784600d60006001846114079190613b20565b8152602001908152602001600020600201540361142d57818061142990613b54565b9250505b808061143890613b54565b9150506113ed565b5060008167ffffffffffffffff81111561145d5761145c6129d9565b5b60405190808252806020026020018201604052801561149657816020015b6114836126d1565b81526020019060019003908161147b5790505b5090506000805b848110156115605786600d60006001846114b79190613b20565b8152602001908152602001600020600201540361154d57600d60006001836114df9190613b20565b815260200190815260200160002060405180608001604052908160008201548152602001600182015481526020016002820154815260200160038201548152505083838151811061153357611532613b9c565b5b6020026020010181905250818061154990613b54565b9250505b808061155890613b54565b91505061149d565b5081945050505050919050565b6000600760008473ffffffffffffffffffffffffffffffffffffffff1673ffffffffffffffffffffffffffffffffffffffff16815260200190815260200160002060008373ffffffffffffffffffffffffffffffffffffffff1673ffffffffffffffffffffffffffffffffffffffff16815260200190815260200160002060009054906101000a900460ff16905092915050565b611609611980565b600073ffffffffffffffffffffffffffffffffffffffff168173ffffffffffffffffffffffffffffffffffffffff1603611678576040517f08c379a000000000000000000000000000000000000000000000000000000000815260040161166f90613c61565b60405180910390fd5b61168181612044565b50565b61168c6126ff565b611695826119fe565b6116d4576040517f08c379a00000000000000000000000000000000000000000000000000000000081526004016116cb906134d0565b60405180910390fd5b60006116e0600a611a88565b905060005b818110156118025783600c60006001846116ff9190613b20565b815260200190815260200160002060010154036117ef57600c60006001836117279190613b20565b81526020019081526020016000206040518060600160405290816000820154815260200160018201548152602001600282018054611764906132c3565b80601f0160208091040260200160405190810160405280929190818152602001828054611790906132c3565b80156117dd5780601f106117b2576101008083540402835291602001916117dd565b820191906000526020600020905b8154815290600101906020018083116117c057829003601f168201915b50505050508152505092505050611805565b80806117fa90613b54565b9150506116e5565b50505b919050565b60007f01ffc9a7000000000000000000000000000000000000000000000000000000007bffffffffffffffffffffffffffffffffffffffffffffffffffffffff1916827bffffffffffffffffffffffffffffffffffffffffffffffffffffffff1916149050919050565b61187d81612351565b6118bc576040517f08c379a00000000000000000000000000000000000000000000000000000000081526004016118b3906139d3565b60405180910390fd5b50565b600033905090565b816006600083815260200190815260200160002060006101000a81548173ffffffffffffffffffffffffffffffffffffffff021916908373ffffffffffffffffffffffffffffffffffffffff160217905550808273ffffffffffffffffffffffffffffffffffffffff1661193a83610b5a565b73ffffffffffffffffffffffffffffffffffffffff167f8c5be1e5ebec7d5bd14f71427d1e84f3dd0314c0f7b2291e5b200ac8c7c3b92560405160405180910390a45050565b6119886118bf565b73ffffffffffffffffffffffffffffffffffffffff166119a6610ebf565b73ffffffffffffffffffffffffffffffffffffffff16146119fc576040517f08c379a00000000000000000000000000000000000000000000000000000000081526004016119f390613ccd565b60405180910390fd5b565b600080611a0b600a611a88565b905060005b81811015611a66576000600c6000600184611a2b9190613b20565b8152602001908152602001600020905084816001015403611a525760019350505050611a6d565b508080611a5e90613b54565b915050611a10565b5060009150505b919050565b6001816000016000828254019250508190555050565b600081600001549050919050565b600073ffffffffffffffffffffffffffffffffffffffff168273ffffffffffffffffffffffffffffffffffffffff1603611b05576040517f08c379a0000000000000000000000000000000000000000000000000000000008152600401611afc90613d39565b60405180910390fd5b611b0e81612351565b15611b4e576040517f08c379a0000000000000000000000000000000000000000000000000000000008152600401611b4590613da5565b60405180910390fd5b611b5a600083836123bd565b6001600560008473ffffffffffffffffffffffffffffffffffffffff1673ffffffffffffffffffffffffffffffffffffffff1681526020019081526020016000206000828254611baa9190613b20565b92505081905550816004600083815260200190815260200160002060006101000a81548173ffffffffffffffffffffffffffffffffffffffff021916908373ffffffffffffffffffffffffffffffffffffffff160217905550808273ffffffffffffffffffffffffffffffffffffffff16600073ffffffffffffffffffffffffffffffffffffffff167fddf252ad1be2c89b69c2b068fc378daa952ba7f163c4a11628f55a4df523b3ef60405160405180910390a4611c6b600083836123c2565b5050565b611c7882612351565b611cb7576040517f08c379a0000000000000000000000000000000000000000000000000000000008152600401611cae90613e37565b60405180910390fd5b80600860008481526020019081526020016000209081611cd791906137e5565b505050565b600080611ce883610b5a565b90508073ffffffffffffffffffffffffffffffffffffffff168473ffffffffffffffffffffffffffffffffffffffff161480611d2a5750611d29818561156d565b5b80611d6857508373ffffffffffffffffffffffffffffffffffffffff16611d5084610645565b73ffffffffffffffffffffffffffffffffffffffff16145b91505092915050565b8273ffffffffffffffffffffffffffffffffffffffff16611d9182610b5a565b73ffffffffffffffffffffffffffffffffffffffff1614611de7576040517f08c379a0000000000000000000000000000000000000000000000000000000008152600401611dde90613ec9565b60405180910390fd5b600073ffffffffffffffffffffffffffffffffffffffff168273ffffffffffffffffffffffffffffffffffffffff1603611e56576040517f08c379a0000000000000000000000000000000000000000000000000000000008152600401611e4d90613f5b565b60405180910390fd5b611e618383836123bd565b611e6c6000826118c7565b6001600560008573ffffffffffffffffffffffffffffffffffffffff1673ffffffffffffffffffffffffffffffffffffffff1681526020019081526020016000206000828254611ebc9190613f7b565b925050819055506001600560008473ffffffffffffffffffffffffffffffffffffffff1673ffffffffffffffffffffffffffffffffffffffff1681526020019081526020016000206000828254611f139190613b20565b92505081905550816004600083815260200190815260200160002060006101000a81548173ffffffffffffffffffffffffffffffffffffffff021916908373ffffffffffffffffffffffffffffffffffffffff160217905550808273ffffffffffffffffffffffffffffffffffffffff168473ffffffffffffffffffffffffffffffffffffffff167fddf252ad1be2c89b69c2b068fc378daa952ba7f163c4a11628f55a4df523b3ef60405160405180910390a4611fd28383836123c2565b505050565b600080611fe46009611a88565b905060005b818110156120385783600d60006001846120039190613b20565b815260200190815260200160002060010154036120255760019250505061203f565b808061203090613b54565b915050611fe9565b5060009150505b919050565b6000600160009054906101000a900473ffffffffffffffffffffffffffffffffffffffff16905081600160006101000a81548173ffffffffffffffffffffffffffffffffffffffff021916908373ffffffffffffffffffffffffffffffffffffffff1602179055508173ffffffffffffffffffffffffffffffffffffffff168173ffffffffffffffffffffffffffffffffffffffff167f8be0079c531659141344cd1fd0a4f28419497f9722a3daafe3b4186f6b6457e060405160405180910390a35050565b8173ffffffffffffffffffffffffffffffffffffffff168373ffffffffffffffffffffffffffffffffffffffff1603612178576040517f08c379a000000000000000000000000000000000000000000000000000000000815260040161216f90613ffb565b60405180910390fd5b80600760008573ffffffffffffffffffffffffffffffffffffffff1673ffffffffffffffffffffffffffffffffffffffff16815260200190815260200160002060008473ffffffffffffffffffffffffffffffffffffffff1673ffffffffffffffffffffffffffffffffffffffff16815260200190815260200160002060006101000a81548160ff0219169083151502179055508173ffffffffffffffffffffffffffffffffffffffff168373ffffffffffffffffffffffffffffffffffffffff167f17307eab39ab6107e8899845ad3d59bd9653f200f220920489ca2b5937696c318360405161226991906127d7565b60405180910390a3505050565b612281848484611d71565b61228d848484846123c7565b6122cc576040517f08c379a00000000000000000000000000000000000000000000000000000000081526004016122c39061408d565b60405180910390fd5b50505050565b606060405180602001604052806000815250905090565b60606122f482611874565b60006122fe6122d2565b9050600081511161231e5760405180602001604052806000815250612349565b806123288461254e565b604051602001612339929190613bcb565b6040516020818303038152906040525b915050919050565b60008073ffffffffffffffffffffffffffffffffffffffff166004600084815260200190815260200160002060009054906101000a900473ffffffffffffffffffffffffffffffffffffffff1673ffffffffffffffffffffffffffffffffffffffff1614159050919050565b505050565b505050565b60006123e88473ffffffffffffffffffffffffffffffffffffffff166126ae565b15612541578373ffffffffffffffffffffffffffffffffffffffff1663150b7a026124116118bf565b8786866040518563ffffffff1660e01b81526004016124339493929190614102565b6020604051808303816000875af192505050801561246f57506040513d601f19601f8201168201806040525081019061246c9190614163565b60015b6124f1573d806000811461249f576040519150601f19603f3d011682016040523d82523d6000602084013e6124a4565b606091505b5060008151036124e9576040517f08c379a00000000000000000000000000000000000000000000000000000000081526004016124e09061408d565b60405180910390fd5b805181602001fd5b63150b7a0260e01b7bffffffffffffffffffffffffffffffffffffffffffffffffffffffff1916817bffffffffffffffffffffffffffffffffffffffffffffffffffffffff191614915050612546565b600190505b949350505050565b606060008203612595576040518060400160405280600181526020017f300000000000000000000000000000000000000000000000000000000000000081525090506126a9565b600082905060005b600082146125c75780806125b090613b54565b915050600a826125c091906141bf565b915061259d565b60008167ffffffffffffffff8111156125e3576125e26129d9565b5b6040519080825280601f01601f1916602001820160405280156126155781602001600182028036833780820191505090505b5090505b600085146126a25760018261262e9190613f7b565b9150600a8561263d91906141f0565b60306126499190613b20565b60f81b81838151811061265f5761265e613b9c565b5b60200101907effffffffffffffffffffffffffffffffffffffffffffffffffffffffffffff1916908160001a905350600a8561269b91906141bf565b9450612619565b8093505050505b919050565b6000808273ffffffffffffffffffffffffffffffffffffffff163b119050919050565b6040518060800160405280600081526020016000801916815260200160008019168152602001600081525090565b60405180606001604052806000815260200160008019168152602001606081525090565b6000604051905090565b600080fd5b600080fd5b60007fffffffff0000000000000000000000000000000000000000000000000000000082169050919050565b61276c81612737565b811461277757600080fd5b50565b60008135905061278981612763565b92915050565b6000602082840312156127a5576127a461272d565b5b60006127b38482850161277a565b91505092915050565b60008115159050919050565b6127d1816127bc565b82525050565b60006020820190506127ec60008301846127c8565b92915050565b600081519050919050565b600082825260208201905092915050565b60005b8381101561282c578082015181840152602081019050612811565b60008484015250505050565b6000601f19601f8301169050919050565b6000612854826127f2565b61285e81856127fd565b935061286e81856020860161280e565b61287781612838565b840191505092915050565b6000602082019050818103600083015261289c8184612849565b905092915050565b6000819050919050565b6128b7816128a4565b81146128c257600080fd5b50565b6000813590506128d4816128ae565b92915050565b6000602082840312156128f0576128ef61272d565b5b60006128fe848285016128c5565b91505092915050565b600073ffffffffffffffffffffffffffffffffffffffff82169050919050565b600061293282612907565b9050919050565b61294281612927565b82525050565b600060208201905061295d6000830184612939565b92915050565b61296c81612927565b811461297757600080fd5b50565b60008135905061298981612963565b92915050565b600080604083850312156129a6576129a561272d565b5b60006129b48582860161297a565b92505060206129c5858286016128c5565b9150509250929050565b600080fd5b600080fd5b7f4e487b7100000000000000000000000000000000000000000000000000000000600052604160045260246000fd5b612a1182612838565b810181811067ffffffffffffffff82111715612a3057612a2f6129d9565b5b80604052505050565b6000612a43612723565b9050612a4f8282612a08565b919050565b600067ffffffffffffffff821115612a6f57612a6e6129d9565b5b612a7882612838565b9050602081019050919050565b82818337600083830152505050565b6000612aa7612aa284612a54565b612a39565b905082815260208101848484011115612ac357612ac26129d4565b5b612ace848285612a85565b509392505050565b600082601f830112612aeb57612aea6129cf565b5b8135612afb848260208601612a94565b91505092915050565b6000819050919050565b612b1781612b04565b8114612b2257600080fd5b50565b600081359050612b3481612b0e565b92915050565b60008060408385031215612b5157612b5061272d565b5b600083013567ffffffffffffffff811115612b6f57612b6e612732565b5b612b7b85828601612ad6565b9250506020612b8c85828601612b25565b9150509250929050565b612b9f81612b04565b82525050565b6000602082019050612bba6000830184612b96565b92915050565b600060208284031215612bd657612bd561272d565b5b600082013567ffffffffffffffff811115612bf457612bf3612732565b5b612c0084828501612ad6565b91505092915050565b600080600060608486031215612c2257612c2161272d565b5b6000612c308682870161297a565b9350506020612c418682870161297a565b9250506040612c52868287016128c5565b9150509250925092565b60008060408385031215612c7357612c7261272d565b5b6000612c8185828601612b25565b9250506020612c9285828601612b25565b9150509250929050565b600060208284031215612cb257612cb161272d565b5b6000612cc08482850161297a565b91505092915050565b612cd2816128a4565b82525050565b6000602082019050612ced6000830184612cc9565b92915050565b600060208284031215612d0957612d0861272d565b5b6000612d1784828501612b25565b91505092915050565b612d29816128a4565b82525050565b612d3881612b04565b82525050565b608082016000820151612d546000850182612d20565b506020820151612d676020850182612d2f565b506040820151612d7a6040850182612d2f565b506060820151612d8d6060850182612d20565b50505050565b6000608082019050612da86000830184612d3e565b92915050565b600081519050919050565b600082825260208201905092915050565b6000819050602082019050919050565b608082016000820151612df06000850182612d20565b506020820151612e036020850182612d2f565b506040820151612e166040850182612d2f565b506060820151612e296060850182612d20565b50505050565b6000612e3b8383612dda565b60808301905092915050565b6000602082019050919050565b6000612e5f82612dae565b612e698185612db9565b9350612e7483612dca565b8060005b83811015612ea5578151612e8c8882612e2f565b9750612e9783612e47565b925050600181019050612e78565b5085935050505092915050565b60006020820190508181036000830152612ecc8184612e54565b905092915050565b612edd816127bc565b8114612ee857600080fd5b50565b600081359050612efa81612ed4565b92915050565b60008060408385031215612f1757612f1661272d565b5b6000612f258582860161297a565b9250506020612f3685828601612eeb565b9150509250929050565b600067ffffffffffffffff821115612f5b57612f5a6129d9565b5b612f6482612838565b9050602081019050919050565b6000612f84612f7f84612f40565b612a39565b905082815260208101848484011115612fa057612f9f6129d4565b5b612fab848285612a85565b509392505050565b600082601f830112612fc857612fc76129cf565b5b8135612fd8848260208601612f71565b91505092915050565b60008060008060808587031215612ffb57612ffa61272d565b5b60006130098782880161297a565b945050602061301a8782880161297a565b935050604061302b878288016128c5565b925050606085013567ffffffffffffffff81111561304c5761304b612732565b5b61305887828801612fb3565b91505092959194509250565b600081519050919050565b600082825260208201905092915050565b6000819050602082019050919050565b600082825260208201905092915050565b60006130ac826127f2565b6130b68185613090565b93506130c681856020860161280e565b6130cf81612838565b840191505092915050565b60006060830160008301516130f26000860182612d20565b5060208301516131056020860182612d2f565b506040830151848203604086015261311d82826130a1565b9150508091505092915050565b600061313683836130da565b905092915050565b6000602082019050919050565b600061315682613064565b613160818561306f565b93508360208202850161317285613080565b8060005b858110156131ae578484038952815161318f858261312a565b945061319a8361313e565b925060208a01995050600181019050613176565b50829750879550505050505092915050565b600060208201905081810360008301526131da818461314b565b905092915050565b600080604083850312156131f9576131f861272d565b5b60006132078582860161297a565b92505060206132188582860161297a565b9150509250929050565b600060608301600083015161323a6000860182612d20565b50602083015161324d6020860182612d2f565b506040830151848203604086015261326582826130a1565b9150508091505092915050565b6000602082019050818103600083015261328c8184613222565b905092915050565b7f4e487b7100000000000000000000000000000000000000000000000000000000600052602260045260246000fd5b600060028204905060018216806132db57607f821691505b6020821081036132ee576132ed613294565b5b50919050565b7f4552433732313a20617070726f76616c20746f2063757272656e74206f776e6560008201527f7200000000000000000000000000000000000000000000000000000000000000602082015250565b60006133506021836127fd565b915061335b826132f4565b604082019050919050565b6000602082019050818103600083015261337f81613343565b9050919050565b7f4552433732313a20617070726f76652063616c6c6572206973206e6f7420746f60008201527f6b656e206f776e6572206e6f7220617070726f76656420666f7220616c6c0000602082015250565b60006133e2603e836127fd565b91506133ed82613386565b604082019050919050565b60006020820190508181036000830152613411816133d5565b9050919050565b7f5265656e7472616e637947756172643a207265656e7472616e742063616c6c00600082015250565b600061344e601f836127fd565b915061345982613418565b602082019050919050565b6000602082019050818103600083015261347d81613441565b9050919050565b7f546869732075736572494420697320696e76616c696400000000000000000000600082015250565b60006134ba6016836127fd565b91506134c582613484565b602082019050919050565b600060208201905081810360008301526134e9816134ad565b9050919050565b6000819050919050565b61350b613506826128a4565b6134f0565b82525050565b600081905092915050565b6000613527826127f2565b6135318185613511565b935061354181856020860161280e565b80840191505092915050565b6000819050919050565b61356861356382612b04565b61354d565b82525050565b600061357a82876134fa565b60208201915061358a828661351c565b915061359682856134fa565b6020820191506135a68284613557565b60208201915081905095945050505050565b60006060820190506135cd6000830186612cc9565b6135da6020830185612b96565b6135e76040830184612cc9565b949350505050565b60006135fb828761351c565b915061360782866134fa565b60208201915061361782856134fa565b60208201915061362782846134fa565b60208201915081905095945050505050565b60008190508160005260206000209050919050565b60006020601f8301049050919050565b600082821b905092915050565b60006008830261369b7fffffffffffffffffffffffffffffffffffffffffffffffffffffffffffffffff8261365e565b6136a5868361365e565b95508019841693508086168417925050509392505050565b6000819050919050565b60006136e26136dd6136d8846128a4565b6136bd565b6128a4565b9050919050565b6000819050919050565b6136fc836136c7565b613710613708826136e9565b84845461366b565b825550505050565b600090565b613725613718565b6137308184846136f3565b505050565b5b818110156137545761374960008261371d565b600181019050613736565b5050565b601f8211156137995761376a81613639565b6137738461364e565b81016020851015613782578190505b61379661378e8561364e565b830182613735565b50505b505050565b600082821c905092915050565b60006137bc6000198460080261379e565b1980831691505092915050565b60006137d583836137ab565b9150826002028217905092915050565b6137ee826127f2565b67ffffffffffffffff811115613807576138066129d9565b5b61381182546132c3565b61381c828285613758565b600060209050601f83116001811461384f576000841561383d578287015190505b61384785826137c9565b8655506138af565b601f19841661385d86613639565b60005b8281101561388557848901518255600182019150602085019450602081019050613860565b868310156138a2578489015161389e601f8916826137ab565b8355505b6001600288020188555050505b505050505050565b60006060820190506138cc6000830186612cc9565b81810360208301526138de8185612849565b90506138ed6040830184612cc9565b949350505050565b7f4552433732313a2063616c6c6572206973206e6f7420746f6b656e206f776e6560008201527f72206e6f7220617070726f766564000000000000000000000000000000000000602082015250565b6000613951602e836127fd565b915061395c826138f5565b604082019050919050565b6000602082019050818103600083015261398081613944565b9050919050565b7f4552433732313a20696e76616c696420746f6b656e2049440000000000000000600082015250565b60006139bd6018836127fd565b91506139c882613987565b602082019050919050565b600060208201905081810360008301526139ec816139b0565b9050919050565b7f5468697320494320697320696e76616c69640000000000000000000000000000600082015250565b6000613a296012836127fd565b9150613a34826139f3565b602082019050919050565b60006020820190508181036000830152613a5881613a1c565b9050919050565b7f4552433732313a2061646472657373207a65726f206973206e6f74206120766160008201527f6c6964206f776e65720000000000000000000000000000000000000000000000602082015250565b6000613abb6029836127fd565b9150613ac682613a5f565b604082019050919050565b60006020820190508181036000830152613aea81613aae565b9050919050565b7f4e487b7100000000000000000000000000000000000000000000000000000000600052601160045260246000fd5b6000613b2b826128a4565b9150613b36836128a4565b9250828201905080821115613b4e57613b4d613af1565b5b92915050565b6000613b5f826128a4565b91507fffffffffffffffffffffffffffffffffffffffffffffffffffffffffffffffff8203613b9157613b90613af1565b5b600182019050919050565b7f4e487b7100000000000000000000000000000000000000000000000000000000600052603260045260246000fd5b6000613bd7828561351c565b9150613be3828461351c565b91508190509392505050565b7f4f776e61626c653a206e6577206f776e657220697320746865207a65726f206160008201527f6464726573730000000000000000000000000000000000000000000000000000602082015250565b6000613c4b6026836127fd565b9150613c5682613bef565b604082019050919050565b60006020820190508181036000830152613c7a81613c3e565b9050919050565b7f4f776e61626c653a2063616c6c6572206973206e6f7420746865206f776e6572600082015250565b6000613cb76020836127fd565b9150613cc282613c81565b602082019050919050565b60006020820190508181036000830152613ce681613caa565b9050919050565b7f4552433732313a206d696e7420746f20746865207a65726f2061646472657373600082015250565b6000613d236020836127fd565b9150613d2e82613ced565b602082019050919050565b60006020820190508181036000830152613d5281613d16565b9050919050565b7f4552433732313a20746f6b656e20616c7265616479206d696e74656400000000600082015250565b6000613d8f601c836127fd565b9150613d9a82613d59565b602082019050919050565b60006020820190508181036000830152613dbe81613d82565b9050919050565b7f45524337323155524953746f726167653a2055524920736574206f66206e6f6e60008201527f6578697374656e7420746f6b656e000000000000000000000000000000000000602082015250565b6000613e21602e836127fd565b9150613e2c82613dc5565b604082019050919050565b60006020820190508181036000830152613e5081613e14565b9050919050565b7f4552433732313a207472616e736665722066726f6d20696e636f72726563742060008201527f6f776e6572000000000000000000000000000000000000000000000000000000602082015250565b6000613eb36025836127fd565b9150613ebe82613e57565b604082019050919050565b60006020820190508181036000830152613ee281613ea6565b9050919050565b7f4552433732313a207472616e7366657220746f20746865207a65726f2061646460008201527f7265737300000000000000000000000000000000000000000000000000000000602082015250565b6000613f456024836127fd565b9150613f5082613ee9565b604082019050919050565b60006020820190508181036000830152613f7481613f38565b9050919050565b6000613f86826128a4565b9150613f91836128a4565b9250828203905081811115613fa957613fa8613af1565b5b92915050565b7f4552433732313a20617070726f766520746f2063616c6c657200000000000000600082015250565b6000613fe56019836127fd565b9150613ff082613faf565b602082019050919050565b6000602082019050818103600083015261401481613fd8565b9050919050565b7f4552433732313a207472616e7366657220746f206e6f6e20455243373231526560008201527f63656976657220696d706c656d656e7465720000000000000000000000000000602082015250565b60006140776032836127fd565b91506140828261401b565b604082019050919050565b600060208201905081810360008301526140a68161406a565b9050919050565b600081519050919050565b600082825260208201905092915050565b60006140d4826140ad565b6140de81856140b8565b93506140ee81856020860161280e565b6140f781612838565b840191505092915050565b60006080820190506141176000830187612939565b6141246020830186612939565b6141316040830185612cc9565b818103606083015261414381846140c9565b905095945050505050565b60008151905061415d81612763565b92915050565b6000602082840312156141795761417861272d565b5b60006141878482850161414e565b91505092915050565b7f4e487b7100000000000000000000000000000000000000000000000000000000600052601260045260246000fd5b60006141ca826128a4565b91506141d5836128a4565b9250826141e5576141e4614190565b5b828204905092915050565b60006141fb826128a4565b9150614206836128a4565b92508261421657614215614190565b5b82820690509291505056fea2646970667358221220dead3917425534cc88f1d1b81b934deec420eb34fcc571d030765d6e79dbe97564736f6c63430008110033",
  "linkReferences": {},
  "deployedLinkReferences": {}
}